{
  "_format": "hh-sol-artifact-1",
  "contractName": "AlienCore",
  "sourceName": "contracts/alienCore.sol",
  "abi": [
    {
      "inputs": [],
      "payable": false,
      "stateMutability": "nonpayable",
      "type": "constructor"
    },
    {
      "anonymous": false,
      "inputs": [
        {
          "indexed": true,
          "internalType": "address",
          "name": "_owner",
          "type": "address"
        },
        {
          "indexed": true,
          "internalType": "address",
          "name": "_approved",
          "type": "address"
        },
        {
          "indexed": false,
          "internalType": "uint256",
          "name": "_tokenId",
          "type": "uint256"
        }
      ],
      "name": "Approval",
      "type": "event"
    },
    {
      "anonymous": false,
      "inputs": [
        {
          "indexed": true,
          "internalType": "uint256",
          "name": "alienId",
          "type": "uint256"
        },
        {
          "indexed": true,
          "internalType": "address",
          "name": "buyer",
          "type": "address"
        },
        {
          "indexed": true,
          "internalType": "address",
          "name": "seller",
          "type": "address"
        }
      ],
      "name": "BuyShopAlien",
      "type": "event"
    },
    {
      "anonymous": false,
      "inputs": [
        {
          "indexed": false,
          "internalType": "bool",
          "name": "success",
          "type": "bool"
        },
        {
          "indexed": false,
          "internalType": "uint256",
          "name": "amount",
          "type": "uint256"
        }
      ],
      "name": "GasClaimed",
      "type": "event"
    },
    {
      "anonymous": false,
      "inputs": [
        {
          "indexed": false,
          "internalType": "uint256",
          "name": "alienId",
          "type": "uint256"
        },
        {
          "indexed": false,
          "internalType": "string",
          "name": "name",
          "type": "string"
        },
        {
          "indexed": false,
          "internalType": "uint256",
          "name": "dna",
          "type": "uint256"
        }
      ],
      "name": "NewAlien",
      "type": "event"
    },
    {
      "anonymous": false,
      "inputs": [
        {
          "indexed": true,
          "internalType": "address",
          "name": "previousOwner",
          "type": "address"
        },
        {
          "indexed": true,
          "internalType": "address",
          "name": "newOwner",
          "type": "address"
        }
      ],
      "name": "OwnershipTransferred",
      "type": "event"
    },
    {
      "anonymous": false,
      "inputs": [
        {
          "indexed": true,
          "internalType": "uint256",
          "name": "alienId",
          "type": "uint256"
        },
        {
          "indexed": true,
          "internalType": "address",
          "name": "seller",
          "type": "address"
        }
      ],
      "name": "SaleAlien",
      "type": "event"
    },
    {
      "anonymous": false,
      "inputs": [
        {
          "indexed": true,
          "internalType": "address",
          "name": "_from",
          "type": "address"
        },
        {
          "indexed": true,
          "internalType": "address",
          "name": "_to",
          "type": "address"
        },
        {
          "indexed": false,
          "internalType": "uint256",
          "name": "_tokenId",
          "type": "uint256"
        }
      ],
      "name": "Transfer",
      "type": "event"
    },
    {
      "payable": true,
      "stateMutability": "payable",
      "type": "fallback"
    },
    {
      "constant": true,
      "inputs": [],
      "name": "BLAST",
      "outputs": [
        {
          "internalType": "contract IBlast",
          "name": "",
          "type": "address"
        }
      ],
      "payable": false,
      "stateMutability": "view",
      "type": "function"
    },
    {
      "constant": false,
      "inputs": [
        {
          "internalType": "uint256",
          "name": "_alienId",
          "type": "uint256"
        }
      ],
      "name": "activateAlien",
      "outputs": [],
      "payable": false,
      "stateMutability": "nonpayable",
      "type": "function"
    },
    {
      "constant": true,
      "inputs": [],
      "name": "alienCount",
      "outputs": [
        {
          "internalType": "uint256",
          "name": "",
          "type": "uint256"
        }
      ],
      "payable": false,
      "stateMutability": "view",
      "type": "function"
    },
    {
      "constant": true,
      "inputs": [
        {
          "internalType": "uint256",
          "name": "",
          "type": "uint256"
        }
      ],
      "name": "alienFeedTimes",
      "outputs": [
        {
          "internalType": "uint256",
          "name": "",
          "type": "uint256"
        }
      ],
      "payable": false,
      "stateMutability": "view",
      "type": "function"
    },
    {
      "constant": true,
      "inputs": [],
      "name": "alienPrice",
      "outputs": [
        {
          "internalType": "uint256",
          "name": "",
          "type": "uint256"
        }
      ],
      "payable": false,
      "stateMutability": "view",
      "type": "function"
    },
    {
      "constant": true,
      "inputs": [
        {
          "internalType": "uint256",
          "name": "",
          "type": "uint256"
        }
      ],
      "name": "alienShop",
      "outputs": [
        {
          "internalType": "address payable",
          "name": "seller",
          "type": "address"
        },
        {
          "internalType": "uint256",
          "name": "price",
          "type": "uint256"
        }
      ],
      "payable": false,
      "stateMutability": "view",
      "type": "function"
    },
    {
      "constant": true,
      "inputs": [
        {
          "internalType": "uint256",
          "name": "",
          "type": "uint256"
        }
      ],
      "name": "alienToOwner",
      "outputs": [
        {
          "internalType": "address",
          "name": "",
          "type": "address"
        }
      ],
      "payable": false,
      "stateMutability": "view",
      "type": "function"
    },
    {
      "constant": true,
      "inputs": [
        {
          "internalType": "uint256",
          "name": "",
          "type": "uint256"
        }
      ],
      "name": "aliens",
      "outputs": [
        {
          "internalType": "string",
          "name": "name",
          "type": "string"
        },
        {
          "internalType": "uint256",
          "name": "dna",
          "type": "uint256"
        },
        {
          "internalType": "uint256",
          "name": "shard",
          "type": "uint256"
        },
        {
          "internalType": "uint16",
          "name": "winCount",
          "type": "uint16"
        },
        {
          "internalType": "uint16",
          "name": "lossCount",
          "type": "uint16"
        },
        {
          "internalType": "uint32",
          "name": "level",
          "type": "uint32"
        },
        {
          "internalType": "uint32",
          "name": "readyFeedTime",
          "type": "uint32"
        },
        {
          "internalType": "uint32",
          "name": "readyAttackTime",
          "type": "uint32"
        }
      ],
      "payable": false,
      "stateMutability": "view",
      "type": "function"
    },
    {
      "constant": false,
      "inputs": [
        {
          "internalType": "address",
          "name": "_to",
          "type": "address"
        },
        {
          "internalType": "uint256",
          "name": "_tokenId",
          "type": "uint256"
        }
      ],
      "name": "approve",
      "outputs": [],
      "payable": false,
      "stateMutability": "nonpayable",
      "type": "function"
    },
    {
      "constant": false,
      "inputs": [
        {
          "internalType": "uint256",
          "name": "_alienId",
          "type": "uint256"
        },
        {
          "internalType": "uint256",
          "name": "_targetId",
          "type": "uint256"
        }
      ],
      "name": "attack",
      "outputs": [
        {
          "internalType": "uint256",
          "name": "",
          "type": "uint256"
        }
      ],
      "payable": false,
      "stateMutability": "nonpayable",
      "type": "function"
    },
    {
      "constant": true,
      "inputs": [
        {
          "internalType": "address",
          "name": "_owner",
          "type": "address"
        }
      ],
      "name": "balanceOf",
      "outputs": [
        {
          "internalType": "uint256",
          "name": "_balance",
          "type": "uint256"
        }
      ],
      "payable": false,
      "stateMutability": "view",
      "type": "function"
    },
    {
      "constant": false,
      "inputs": [
        {
          "internalType": "string",
          "name": "_name",
          "type": "string"
        }
      ],
      "name": "buyAlien",
      "outputs": [],
      "payable": true,
      "stateMutability": "payable",
      "type": "function"
    },
    {
      "constant": false,
      "inputs": [
        {
          "internalType": "uint256",
          "name": "_alienId",
          "type": "uint256"
        }
      ],
      "name": "buyShards",
      "outputs": [],
      "payable": true,
      "stateMutability": "payable",
      "type": "function"
    },
    {
      "constant": false,
      "inputs": [
        {
          "internalType": "uint256",
          "name": "_alienId",
          "type": "uint256"
        }
      ],
      "name": "buyShopAlien",
      "outputs": [],
      "payable": true,
      "stateMutability": "payable",
      "type": "function"
    },
    {
      "constant": false,
      "inputs": [
        {
          "internalType": "uint256",
          "name": "_alienId",
          "type": "uint256"
        },
        {
          "internalType": "string",
          "name": "_newName",
          "type": "string"
        }
      ],
      "name": "changeName",
      "outputs": [],
      "payable": false,
      "stateMutability": "nonpayable",
      "type": "function"
    },
    {
      "constant": true,
      "inputs": [],
      "name": "checkBalance",
      "outputs": [
        {
          "internalType": "uint256",
          "name": "",
          "type": "uint256"
        }
      ],
      "payable": false,
      "stateMutability": "view",
      "type": "function"
    },
    {
      "constant": false,
      "inputs": [],
      "name": "claimAllContractGas",
      "outputs": [],
      "payable": false,
      "stateMutability": "nonpayable",
      "type": "function"
    },
    {
      "constant": false,
      "inputs": [],
      "name": "claimMaxContractGas",
      "outputs": [],
      "payable": false,
      "stateMutability": "nonpayable",
      "type": "function"
    },
    {
      "constant": true,
      "inputs": [
        {
          "internalType": "string",
          "name": "",
          "type": "string"
        }
      ],
      "name": "codeOwners",
      "outputs": [
        {
          "internalType": "address",
          "name": "",
          "type": "address"
        }
      ],
      "payable": false,
      "stateMutability": "view",
      "type": "function"
    },
    {
      "constant": true,
      "inputs": [],
      "name": "cooldownTime",
      "outputs": [
        {
          "internalType": "uint256",
          "name": "",
          "type": "uint256"
        }
      ],
      "payable": false,
      "stateMutability": "view",
      "type": "function"
    },
    {
      "constant": false,
      "inputs": [
        {
          "internalType": "string",
          "name": "_name",
          "type": "string"
        },
        {
          "internalType": "string",
          "name": "inviteCode",
          "type": "string"
        }
      ],
      "name": "createAlien",
      "outputs": [],
      "payable": false,
      "stateMutability": "nonpayable",
      "type": "function"
    },
    {
      "constant": false,
      "inputs": [
        {
          "internalType": "uint256",
          "name": "_alienId",
          "type": "uint256"
        }
      ],
      "name": "feed",
      "outputs": [],
      "payable": false,
      "stateMutability": "nonpayable",
      "type": "function"
    },
    {
      "constant": false,
      "inputs": [],
      "name": "generateInviteCode",
      "outputs": [],
      "payable": false,
      "stateMutability": "nonpayable",
      "type": "function"
    },
    {
      "constant": true,
      "inputs": [
        {
          "internalType": "address",
          "name": "_owner",
          "type": "address"
        }
      ],
      "name": "getAliensByOwner",
      "outputs": [
        {
          "internalType": "uint256[]",
          "name": "",
          "type": "uint256[]"
        }
      ],
      "payable": false,
      "stateMutability": "view",
      "type": "function"
    },
    {
      "constant": true,
      "inputs": [],
      "name": "getShopAliens",
      "outputs": [
        {
          "internalType": "uint256[]",
          "name": "",
          "type": "uint256[]"
        }
      ],
      "payable": false,
      "stateMutability": "view",
      "type": "function"
    },
    {
      "constant": true,
      "inputs": [],
      "name": "increment",
      "outputs": [
        {
          "internalType": "uint256",
          "name": "",
          "type": "uint256"
        }
      ],
      "payable": false,
      "stateMutability": "view",
      "type": "function"
    },
    {
      "constant": true,
      "inputs": [
        {
          "internalType": "address",
          "name": "",
          "type": "address"
        }
      ],
      "name": "inviteCodes",
      "outputs": [
        {
          "internalType": "string",
          "name": "",
          "type": "string"
        }
      ],
      "payable": false,
      "stateMutability": "view",
      "type": "function"
    },
    {
      "constant": false,
      "inputs": [
        {
          "internalType": "uint256",
          "name": "_alienId",
          "type": "uint256"
        }
      ],
      "name": "levelUp",
      "outputs": [],
      "payable": false,
      "stateMutability": "nonpayable",
      "type": "function"
    },
    {
      "constant": true,
      "inputs": [],
      "name": "minPrice",
      "outputs": [
        {
          "internalType": "uint256",
          "name": "",
          "type": "uint256"
        }
      ],
      "payable": false,
      "stateMutability": "view",
      "type": "function"
    },
    {
      "constant": true,
      "inputs": [],
      "name": "name",
      "outputs": [
        {
          "internalType": "string",
          "name": "",
          "type": "string"
        }
      ],
      "payable": false,
      "stateMutability": "view",
      "type": "function"
    },
    {
      "constant": true,
      "inputs": [],
      "name": "owner",
      "outputs": [
        {
          "internalType": "address payable",
          "name": "",
          "type": "address"
        }
      ],
      "payable": false,
      "stateMutability": "view",
      "type": "function"
    },
    {
      "constant": true,
      "inputs": [
        {
          "internalType": "uint256",
          "name": "_tokenId",
          "type": "uint256"
        }
      ],
      "name": "ownerOf",
      "outputs": [
        {
          "internalType": "address",
          "name": "_owner",
          "type": "address"
        }
      ],
      "payable": false,
      "stateMutability": "view",
      "type": "function"
    },
    {
      "constant": true,
      "inputs": [
        {
          "internalType": "address",
          "name": "",
          "type": "address"
        }
      ],
      "name": "points",
      "outputs": [
        {
          "internalType": "uint256",
          "name": "",
          "type": "uint256"
        }
      ],
      "payable": false,
      "stateMutability": "view",
      "type": "function"
    },
    {
      "constant": false,
      "inputs": [
        {
          "internalType": "uint256",
          "name": "_alienId",
          "type": "uint256"
        },
        {
          "internalType": "uint256",
          "name": "_price",
          "type": "uint256"
        }
      ],
      "name": "saleMyAlien",
      "outputs": [],
      "payable": false,
      "stateMutability": "nonpayable",
      "type": "function"
    },
    {
      "constant": false,
      "inputs": [
        {
          "internalType": "uint256",
          "name": "_price",
          "type": "uint256"
        }
      ],
      "name": "setAlienPrice",
      "outputs": [],
      "payable": false,
      "stateMutability": "nonpayable",
      "type": "function"
    },
    {
      "constant": false,
      "inputs": [
        {
          "internalType": "uint256",
          "name": "_newIncrement",
          "type": "uint256"
        }
      ],
      "name": "setIncrement",
      "outputs": [],
      "payable": false,
      "stateMutability": "nonpayable",
      "type": "function"
    },
    {
      "constant": false,
      "inputs": [
        {
          "internalType": "uint256",
          "name": "_value",
          "type": "uint256"
        }
      ],
      "name": "setMinPrice",
      "outputs": [],
      "payable": false,
      "stateMutability": "nonpayable",
      "type": "function"
    },
    {
      "constant": false,
      "inputs": [
        {
          "internalType": "uint256",
          "name": "_price",
          "type": "uint256"
        }
      ],
      "name": "setShardPrice",
      "outputs": [],
      "payable": false,
      "stateMutability": "nonpayable",
      "type": "function"
    },
    {
      "constant": true,
      "inputs": [],
      "name": "shardPrice",
      "outputs": [
        {
          "internalType": "uint256",
          "name": "",
          "type": "uint256"
        }
      ],
      "payable": false,
      "stateMutability": "view",
      "type": "function"
    },
    {
      "constant": true,
      "inputs": [],
      "name": "symbol",
      "outputs": [
        {
          "internalType": "string",
          "name": "",
          "type": "string"
        }
      ],
      "payable": false,
      "stateMutability": "view",
      "type": "function"
    },
    {
      "constant": false,
      "inputs": [
        {
          "internalType": "uint256",
          "name": "_tokenId",
          "type": "uint256"
        }
      ],
      "name": "takeOwnership",
      "outputs": [],
      "payable": false,
      "stateMutability": "nonpayable",
      "type": "function"
    },
    {
      "constant": false,
      "inputs": [
        {
          "internalType": "address",
          "name": "_to",
          "type": "address"
        },
        {
          "internalType": "uint256",
          "name": "_tokenId",
          "type": "uint256"
        }
      ],
      "name": "transfer",
      "outputs": [],
      "payable": false,
      "stateMutability": "nonpayable",
      "type": "function"
    },
    {
      "constant": false,
      "inputs": [
        {
          "internalType": "address payable",
          "name": "newOwner",
          "type": "address"
        }
      ],
      "name": "transferOwnership",
      "outputs": [],
      "payable": false,
      "stateMutability": "nonpayable",
      "type": "function"
    },
    {
      "constant": false,
      "inputs": [],
      "name": "withdraw",
      "outputs": [],
      "payable": false,
      "stateMutability": "nonpayable",
      "type": "function"
    }
  ],
  "bytecode": "0x60806040526010600155600154600a0a60025562015180600355662386f26fc1000060045560006005556005600d556002600e55655af3107a4000600f5566038d7ea4c6800060135560006014553480156200005a57600080fd5b50336000806101000a81548173ffffffffffffffffffffffffffffffffffffffff021916908373ffffffffffffffffffffffffffffffffffffffff16021790555033601560006101000a81548173ffffffffffffffffffffffffffffffffffffffff021916908373ffffffffffffffffffffffffffffffffffffffff16021790555073430000000000000000000000000000000000000273ffffffffffffffffffffffffffffffffffffffff16634e606c476040518163ffffffff1660e01b8152600401600060405180830381600087803b1580156200013957600080fd5b505af11580156200014e573d6000803e3d6000fd5b50505050614e4480620001626000396000f3fe6080604052600436106102675760003560e01c806398ab95d611610144578063ca15fd60116100b6578063e748814b1161007a578063e748814b146110e7578063ed50257014611115578063ef4c8dff146111df578063f2fde38b1461121a578063f59dfdfb1461126b578063ff7c9ac5146112a657610267565b8063ca15fd6014610ee4578063d09de08a14610ffd578063ddf3fc1a14611028578063e1fa763814611063578063e45be8eb146110bc57610267565b8063b76e89e911610108578063b76e89e914610d57578063b97fbf5c14610d6e578063c39cbef114610da9578063c6e20ea614610e39578063c71daccb14610e74578063c8c6b3f114610e9f57610267565b806398ab95d614610bff578063a5e8364714610c6b578063a9059cbb14610c96578063b2e6ceeb14610cf1578063b319c6b714610d2c57610267565b806354da4ac1116101dd5780637314121b116101a15780637314121b146109c257806384ec4daf146109f05780638da5cb5b14610a3f5780638e224e2214610a9657806395d89b4114610b1857806397d7577614610ba857610267565b806354da4ac1146108795780635ea8cd12146108905780635f5442e9146108cb5780636352211e146108e257806370a082311461095d57610267565b8063358b81661161022f578063358b8166146105945780633cc6ef53146105f95780633ccfd60b1461070157806346d485bb1461071857806348105b971461074357806350089a2e146107fe57610267565b806306fdde0314610269578063095ea7b3146102f95780630ce90ec2146103545780631b7017e01461038f578063217f80b3146104ee575b005b34801561027557600080fd5b5061027e6112d1565b6040518080602001828103825283818151815260200191508051906020019080838360005b838110156102be5780820151818401526020810190506102a3565b50505050905090810190601f1680156102eb5780820380516001836020036101000a031916815260200191505b509250505060405180910390f35b34801561030557600080fd5b506103526004803603604081101561031c57600080fd5b81019080803573ffffffffffffffffffffffffffffffffffffffff1690602001909291908035906020019092919050505061130a565b005b34801561036057600080fd5b5061038d6004803603602081101561037757600080fd5b810190808035906020019092919050505061149b565b005b34801561039b57600080fd5b506104ec600480360360408110156103b257600080fd5b81019080803590602001906401000000008111156103cf57600080fd5b8201836020820111156103e157600080fd5b8035906020019184600183028401116401000000008311171561040357600080fd5b91908080601f016020809104026020016040519081016040528093929190818152602001838380828437600081840152601f19601f8201169050808301925050505050505091929192908035906020019064010000000081111561046657600080fd5b82018360208201111561047857600080fd5b8035906020019184600183028401116401000000008311171561049a57600080fd5b91908080601f016020809104026020016040519081016040528093929190818152602001838380828437600081840152601f19601f82011690508083019250505050505050919291929050505061168e565b005b3480156104fa57600080fd5b5061053d6004803603602081101561051157600080fd5b81019080803573ffffffffffffffffffffffffffffffffffffffff169060200190929190505050611714565b6040518080602001828103825283818151815260200191508051906020019060200280838360005b83811015610580578082015181840152602081019050610565565b505050509050019250505060405180910390f35b3480156105a057600080fd5b506105e3600480360360208110156105b757600080fd5b81019080803573ffffffffffffffffffffffffffffffffffffffff169060200190929190505050611841565b6040518082815260200191505060405180910390f35b34801561060557600080fd5b506106bf6004803603602081101561061c57600080fd5b810190808035906020019064010000000081111561063957600080fd5b82018360208201111561064b57600080fd5b8035906020019184600183028401116401000000008311171561066d57600080fd5b91908080601f016020809104026020016040519081016040528093929190818152602001838380828437600081840152601f19601f820116905080830192505050505050509192919290505050611859565b604051808273ffffffffffffffffffffffffffffffffffffffff1673ffffffffffffffffffffffffffffffffffffffff16815260200191505060405180910390f35b34801561070d57600080fd5b506107166118a2565b005b34801561072457600080fd5b5061072d6119e6565b6040518082815260200191505060405180910390f35b6107fc6004803603602081101561075957600080fd5b810190808035906020019064010000000081111561077657600080fd5b82018360208201111561078857600080fd5b803590602001918460018302840111640100000000831117156107aa57600080fd5b91908080601f016020809104026020016040519081016040528093929190818152602001838380828437600081840152601f19601f8201169050808301925050505050505091929192905050506119ec565b005b34801561080a57600080fd5b506108376004803603602081101561082157600080fd5b8101908080359060200190929190505050611a76565b604051808273ffffffffffffffffffffffffffffffffffffffff1673ffffffffffffffffffffffffffffffffffffffff16815260200191505060405180910390f35b34801561088557600080fd5b5061088e611aa9565b005b34801561089c57600080fd5b506108c9600480360360208110156108b357600080fd5b8101908080359060200190929190505050611ce5565b005b3480156108d757600080fd5b506108e0611db1565b005b3480156108ee57600080fd5b5061091b6004803603602081101561090557600080fd5b8101908080359060200190929190505050611f78565b604051808273ffffffffffffffffffffffffffffffffffffffff1673ffffffffffffffffffffffffffffffffffffffff16815260200191505060405180910390f35b34801561096957600080fd5b506109ac6004803603602081101561098057600080fd5b81019080803573ffffffffffffffffffffffffffffffffffffffff169060200190929190505050611fb5565b6040518082815260200191505060405180910390f35b6109ee600480360360208110156109d857600080fd5b8101908080359060200190929190505050611ffe565b005b3480156109fc57600080fd5b50610a2960048036036020811015610a1357600080fd5b8101908080359060200190929190505050612268565b6040518082815260200191505060405180910390f35b348015610a4b57600080fd5b50610a54612280565b604051808273ffffffffffffffffffffffffffffffffffffffff1673ffffffffffffffffffffffffffffffffffffffff16815260200191505060405180910390f35b348015610aa257600080fd5b50610acf60048036036020811015610ab957600080fd5b81019080803590602001909291905050506122a6565b604051808373ffffffffffffffffffffffffffffffffffffffff1673ffffffffffffffffffffffffffffffffffffffff1681526020018281526020019250505060405180910390f35b348015610b2457600080fd5b50610b2d6122ea565b6040518080602001828103825283818151815260200191508051906020019080838360005b83811015610b6d578082015181840152602081019050610b52565b50505050905090810190601f168015610b9a5780820380516001836020036101000a031916815260200191505b509250505060405180910390f35b348015610bb457600080fd5b50610bbd612323565b604051808273ffffffffffffffffffffffffffffffffffffffff1673ffffffffffffffffffffffffffffffffffffffff16815260200191505060405180910390f35b348015610c0b57600080fd5b50610c1461233b565b6040518080602001828103825283818151815260200191508051906020019060200280838360005b83811015610c57578082015181840152602081019050610c3c565b505050509050019250505060405180910390f35b348015610c7757600080fd5b50610c806123e0565b6040518082815260200191505060405180910390f35b348015610ca257600080fd5b50610cef60048036036040811015610cb957600080fd5b81019080803573ffffffffffffffffffffffffffffffffffffffff169060200190929190803590602001909291905050506123e6565b005b348015610cfd57600080fd5b50610d2a60048036036020811015610d1457600080fd5b81019080803590602001909291905050506124cb565b005b348015610d3857600080fd5b50610d41612552565b6040518082815260200191505060405180910390f35b348015610d6357600080fd5b50610d6c612558565b005b348015610d7a57600080fd5b50610da760048036036020811015610d9157600080fd5b810190808035906020019092919050505061271f565b005b348015610db557600080fd5b50610e3760048036036040811015610dcc57600080fd5b810190808035906020019092919080359060200190640100000000811115610df357600080fd5b820183602082011115610e0557600080fd5b80359060200191846001830284011164010000000083111715610e2757600080fd5b9091929391929390505050612936565b005b348015610e4557600080fd5b50610e7260048036036020811015610e5c57600080fd5b8101908080359060200190929190505050612aee565b005b348015610e8057600080fd5b50610e89612bba565b6040518082815260200191505060405180910390f35b348015610eab57600080fd5b50610ee260048036036040811015610ec257600080fd5b810190808035906020019092919080359060200190929190505050612c9b565b005b348015610ef057600080fd5b50610f1d60048036036020811015610f0757600080fd5b8101908080359060200190929190505050612ef4565b60405180806020018981526020018881526020018761ffff1661ffff1681526020018661ffff1661ffff1681526020018563ffffffff1663ffffffff1681526020018463ffffffff1663ffffffff1681526020018363ffffffff1663ffffffff16815260200182810382528a818151815260200191508051906020019080838360005b83811015610fbb578082015181840152602081019050610fa0565b50505050905090810190601f168015610fe85780820380516001836020036101000a031916815260200191505b50995050505050505050505060405180910390f35b34801561100957600080fd5b5061101261302d565b6040518082815260200191505060405180910390f35b34801561103457600080fd5b506110616004803603602081101561104b57600080fd5b8101908080359060200190929190505050613033565b005b34801561106f57600080fd5b506110a66004803603604081101561108657600080fd5b8101908080359060200190929190803590602001909291905050506130ff565b6040518082815260200191505060405180910390f35b3480156110c857600080fd5b506110d16135e1565b6040518082815260200191505060405180910390f35b611113600480360360208110156110fd57600080fd5b81019080803590602001909291905050506135e7565b005b34801561112157600080fd5b506111646004803603602081101561113857600080fd5b81019080803573ffffffffffffffffffffffffffffffffffffffff1690602001909291905050506137bb565b6040518080602001828103825283818151815260200191508051906020019080838360005b838110156111a4578082015181840152602081019050611189565b50505050905090810190601f1680156111d15780820380516001836020036101000a031916815260200191505b509250505060405180910390f35b3480156111eb57600080fd5b506112186004803603602081101561120257600080fd5b810190808035906020019092919050505061386b565b005b34801561122657600080fd5b506112696004803603602081101561123d57600080fd5b81019080803573ffffffffffffffffffffffffffffffffffffffff169060200190929190505050613937565b005b34801561127757600080fd5b506112a46004803603602081101561128e57600080fd5b8101908080359060200190929190505050613b5a565b005b3480156112b257600080fd5b506112bb613e3c565b6040518082815260200191505060405180910390f35b6040518060400160405280600d81526020017f47414c415859204245494e47530000000000000000000000000000000000000081525081565b806007600082815260200190815260200160002060009054906101000a900473ffffffffffffffffffffffffffffffffffffffff1673ffffffffffffffffffffffffffffffffffffffff163373ffffffffffffffffffffffffffffffffffffffff16146113df576040517f08c379a00000000000000000000000000000000000000000000000000000000081526004018080602001828103825260128152602001807f416c69656e206973206e6f7420796f757273000000000000000000000000000081525060200191505060405180910390fd5b826010600084815260200190815260200160002060006101000a81548173ffffffffffffffffffffffffffffffffffffffff021916908373ffffffffffffffffffffffffffffffffffffffff1602179055508273ffffffffffffffffffffffffffffffffffffffff163373ffffffffffffffffffffffffffffffffffffffff167f8c5be1e5ebec7d5bd14f71427d1e84f3dd0314c0f7b2291e5b200ac8c7c3b925846040518082815260200191505060405180910390a3505050565b806007600082815260200190815260200160002060009054906101000a900473ffffffffffffffffffffffffffffffffffffffff1673ffffffffffffffffffffffffffffffffffffffff163373ffffffffffffffffffffffffffffffffffffffff1614611570576040517f08c379a00000000000000000000000000000000000000000000000000000000081526004018080602001828103825260128152602001807f416c69656e206973206e6f7420796f757273000000000000000000000000000081525060200191505060405180910390fd5b60006006838154811061157f57fe5b9060005260206000209060040201905060008160030160049054906101000a900463ffffffff1663ffffffff1690506000600e546001830302600d540190508083600201541015611638576040517f08c379a000000000000000000000000000000000000000000000000000000000815260040180806020018281038252601d8152602001807f4e6f7420656e6f7567682073686172647320746f206c6576656c20757000000081525060200191505060405180910390fd5b80836002016000828254039250508190555082600301600481819054906101000a900463ffffffff168092919060010191906101000a81548163ffffffff021916908363ffffffff160217905550505050505050565b6000600860003373ffffffffffffffffffffffffffffffffffffffff1673ffffffffffffffffffffffffffffffffffffffff16815260200190815260200160002054146116da57600080fd5b60006116e583613e42565b9050600a81816116f157fe5b0681039050600061170183613ed3565b905061170e84838361407b565b50505050565b606080600860008473ffffffffffffffffffffffffffffffffffffffff1673ffffffffffffffffffffffffffffffffffffffff168152602001908152602001600020546040519080825280602002602001820160405280156117855781602001602082028038833980820191505090505b509050600080905060008090505b600680549050811015611836578473ffffffffffffffffffffffffffffffffffffffff166007600083815260200190815260200160002060009054906101000a900473ffffffffffffffffffffffffffffffffffffffff1673ffffffffffffffffffffffffffffffffffffffff161415611829578083838151811061181457fe5b60200260200101818152505081806001019250505b8080600101915050611793565b508192505050919050565b600c6020528060005260406000206000915090505481565b600b818051602081018201805184825260208301602085012081835280955050505050506000915054906101000a900473ffffffffffffffffffffffffffffffffffffffff1681565b6000809054906101000a900473ffffffffffffffffffffffffffffffffffffffff1673ffffffffffffffffffffffffffffffffffffffff163373ffffffffffffffffffffffffffffffffffffffff1614611964576040517f08c379a00000000000000000000000000000000000000000000000000000000081526004018080602001828103825260138152602001807f4d75737420636f6e7472616374206f776e65720000000000000000000000000081525060200191505060405180910390fd5b601560009054906101000a900473ffffffffffffffffffffffffffffffffffffffff1673ffffffffffffffffffffffffffffffffffffffff166108fc3073ffffffffffffffffffffffffffffffffffffffff16319081150290604051600060405180830381858888f193505050501580156119e3573d6000803e3d6000fd5b50565b60045481565b6000600860003373ffffffffffffffffffffffffffffffffffffffff1673ffffffffffffffffffffffffffffffffffffffff1681526020019081526020016000205411611a3857600080fd5b600454341015611a4757600080fd5b6000611a5282613e42565b90506001600a8281611a6057fe5b068203019050611a728282600061407b565b5050565b60076020528060005260406000206000915054906101000a900473ffffffffffffffffffffffffffffffffffffffff1681565b6000600a60003373ffffffffffffffffffffffffffffffffffffffff1673ffffffffffffffffffffffffffffffffffffffff16815260200190815260200160002080546001816001161561010002031660029004905014611b72576040517f08c379a000000000000000000000000000000000000000000000000000000000815260040180806020018281038252601d8152602001807f496e7669746520636f646520616c72656164792067656e65726174656400000081525060200191505060405180910390fd5b600033604051602001808273ffffffffffffffffffffffffffffffffffffffff1673ffffffffffffffffffffffffffffffffffffffff1660601b81526014019150506040516020818303038152906040528051906020012090506060611be3611bda836143c3565b600060086144f5565b905080600a60003373ffffffffffffffffffffffffffffffffffffffff1673ffffffffffffffffffffffffffffffffffffffff1681526020019081526020016000209080519060200190611c38929190614c25565b5033600b826040518082805190602001908083835b60208310611c705780518252602082019150602081019050602083039250611c4d565b6001836020036101000a038019825116818451168082178552505050505050905001915050908152602001604051809103902060006101000a81548173ffffffffffffffffffffffffffffffffffffffff021916908373ffffffffffffffffffffffffffffffffffffffff1602179055505050565b6000809054906101000a900473ffffffffffffffffffffffffffffffffffffffff1673ffffffffffffffffffffffffffffffffffffffff163373ffffffffffffffffffffffffffffffffffffffff1614611da7576040517f08c379a00000000000000000000000000000000000000000000000000000000081526004018080602001828103825260138152602001807f4d75737420636f6e7472616374206f776e65720000000000000000000000000081525060200191505060405180910390fd5b8060138190555050565b6000809054906101000a900473ffffffffffffffffffffffffffffffffffffffff1673ffffffffffffffffffffffffffffffffffffffff163373ffffffffffffffffffffffffffffffffffffffff1614611e73576040517f08c379a00000000000000000000000000000000000000000000000000000000081526004018080602001828103825260138152602001807f4d75737420636f6e7472616374206f776e65720000000000000000000000000081525060200191505060405180910390fd5b73430000000000000000000000000000000000000273ffffffffffffffffffffffffffffffffffffffff1663662aa11d30336040518363ffffffff1660e01b8152600401808373ffffffffffffffffffffffffffffffffffffffff1673ffffffffffffffffffffffffffffffffffffffff1681526020018273ffffffffffffffffffffffffffffffffffffffff1673ffffffffffffffffffffffffffffffffffffffff16815260200192505050602060405180830381600087803b158015611f3a57600080fd5b505af1158015611f4e573d6000803e3d6000fd5b505050506040513d6020811015611f6457600080fd5b810190808051906020019092919050505050565b60006007600083815260200190815260200160002060009054906101000a900473ffffffffffffffffffffffffffffffffffffffff169050919050565b6000600860008373ffffffffffffffffffffffffffffffffffffffff1673ffffffffffffffffffffffffffffffffffffffff168152602001908152602001600020549050919050565b601160008281526020019081526020016000206001015434101561208a576040517f08c379a000000000000000000000000000000000000000000000000000000000815260040180806020018281038252600f8152602001807f4e6f20656e6f756768206d6f6e6579000000000000000000000000000000000081525060200191505060405180910390fd5b600060646005601160008581526020019081526020016000206001015402816120af57fe5b0490506120f36011600084815260200190815260200160002060000160009054906101000a900473ffffffffffffffffffffffffffffffffffffffff1633846145b1565b6011600083815260200190815260200160002060000160009054906101000a900473ffffffffffffffffffffffffffffffffffffffff1673ffffffffffffffffffffffffffffffffffffffff166108fc8234039081150290604051600060405180830381858888f19350505050158015612171573d6000803e3d6000fd5b5060116000838152602001908152602001600020600080820160006101000a81549073ffffffffffffffffffffffffffffffffffffffff0219169055600182016000905550506121cd600160125461479990919063ffffffff16565b6012819055506011600083815260200190815260200160002060000160009054906101000a900473ffffffffffffffffffffffffffffffffffffffff1673ffffffffffffffffffffffffffffffffffffffff163373ffffffffffffffffffffffffffffffffffffffff16837f73c500d6398de063697316c500c0538ba2c0be76bea615a7b7f1e1c9f5b1158460405160405180910390a45050565b60096020528060005260406000206000915090505481565b601560009054906101000a900473ffffffffffffffffffffffffffffffffffffffff1681565b60116020528060005260406000206000915090508060000160009054906101000a900473ffffffffffffffffffffffffffffffffffffffff16908060010154905082565b6040518060400160405280600481526020017f474142450000000000000000000000000000000000000000000000000000000081525081565b73430000000000000000000000000000000000000281565b60608060125460405190808252806020026020018201604052801561236f5781602001602082028038833980820191505090505b509050600080905060008090505b6006805490508110156123d75760006011600083815260200190815260200160002060010154146123ca57808383815181106123b557fe5b60200260200101818152505081806001019250505b808060010191505061237d565b50819250505090565b60055481565b806007600082815260200190815260200160002060009054906101000a900473ffffffffffffffffffffffffffffffffffffffff1673ffffffffffffffffffffffffffffffffffffffff163373ffffffffffffffffffffffffffffffffffffffff16146124bb576040517f08c379a00000000000000000000000000000000000000000000000000000000081526004018080602001828103825260128152602001807f416c69656e206973206e6f7420796f757273000000000000000000000000000081525060200191505060405180910390fd5b6124c63384846145b1565b505050565b3373ffffffffffffffffffffffffffffffffffffffff166010600083815260200190815260200160002060009054906101000a900473ffffffffffffffffffffffffffffffffffffffff1673ffffffffffffffffffffffffffffffffffffffff161461253657600080fd5b600061254182611f78565b905061254e8133846145b1565b5050565b60035481565b6000809054906101000a900473ffffffffffffffffffffffffffffffffffffffff1673ffffffffffffffffffffffffffffffffffffffff163373ffffffffffffffffffffffffffffffffffffffff161461261a576040517f08c379a00000000000000000000000000000000000000000000000000000000081526004018080602001828103825260138152602001807f4d75737420636f6e7472616374206f776e65720000000000000000000000000081525060200191505060405180910390fd5b73430000000000000000000000000000000000000273ffffffffffffffffffffffffffffffffffffffff1663954fa5ee30336040518363ffffffff1660e01b8152600401808373ffffffffffffffffffffffffffffffffffffffff1673ffffffffffffffffffffffffffffffffffffffff1681526020018273ffffffffffffffffffffffffffffffffffffffff1673ffffffffffffffffffffffffffffffffffffffff16815260200192505050602060405180830381600087803b1580156126e157600080fd5b505af11580156126f5573d6000803e3d6000fd5b505050506040513d602081101561270b57600080fd5b810190808051906020019092919050505050565b806007600082815260200190815260200160002060009054906101000a900473ffffffffffffffffffffffffffffffffffffffff1673ffffffffffffffffffffffffffffffffffffffff163373ffffffffffffffffffffffffffffffffffffffff16146127f4576040517f08c379a00000000000000000000000000000000000000000000000000000000081526004018080602001828103825260128152602001807f416c69656e206973206e6f7420796f757273000000000000000000000000000081525060200191505060405180910390fd5b60006006838154811061280357fe5b90600052602060002090600402019050600a8160030160029054906101000a900461ffff1661ffff1610156128a0576040517f08c379a00000000000000000000000000000000000000000000000000000000081526004018080602001828103825260208152602001807f596f757220616c69656e206973206e6f7420657868617573746564207965742181525060200191505060405180910390fd5b600a816002015410156128fe576040517f08c379a0000000000000000000000000000000000000000000000000000000008152600401808060200182810382526023815260200180614ded6023913960400191505060405180910390fd5b600a816002016000828254039250508190555060008160030160026101000a81548161ffff021916908361ffff160217905550505050565b600283816006828154811061294757fe5b906000526020600020906004020160030160049054906101000a900463ffffffff1663ffffffff1610156129e3576040517f08c379a00000000000000000000000000000000000000000000000000000000081526004018080602001828103825260178152602001807f4c6576656c206973206e6f742073756666696369656e7400000000000000000081525060200191505060405180910390fd5b846007600082815260200190815260200160002060009054906101000a900473ffffffffffffffffffffffffffffffffffffffff1673ffffffffffffffffffffffffffffffffffffffff163373ffffffffffffffffffffffffffffffffffffffff1614612ab8576040517f08c379a00000000000000000000000000000000000000000000000000000000081526004018080602001828103825260128152602001807f416c69656e206973206e6f7420796f757273000000000000000000000000000081525060200191505060405180910390fd5b848460068881548110612ac757fe5b90600052602060002090600402016000019190612ae5929190614ca5565b50505050505050565b6000809054906101000a900473ffffffffffffffffffffffffffffffffffffffff1673ffffffffffffffffffffffffffffffffffffffff163373ffffffffffffffffffffffffffffffffffffffff1614612bb0576040517f08c379a00000000000000000000000000000000000000000000000000000000081526004018080602001828103825260138152602001807f4d75737420636f6e7472616374206f776e65720000000000000000000000000081525060200191505060405180910390fd5b8060048190555050565b60008060009054906101000a900473ffffffffffffffffffffffffffffffffffffffff1673ffffffffffffffffffffffffffffffffffffffff163373ffffffffffffffffffffffffffffffffffffffff1614612c7e576040517f08c379a00000000000000000000000000000000000000000000000000000000081526004018080602001828103825260138152602001807f4d75737420636f6e7472616374206f776e65720000000000000000000000000081525060200191505060405180910390fd5b3073ffffffffffffffffffffffffffffffffffffffff1631905090565b816007600082815260200190815260200160002060009054906101000a900473ffffffffffffffffffffffffffffffffffffffff1673ffffffffffffffffffffffffffffffffffffffff163373ffffffffffffffffffffffffffffffffffffffff1614612d70576040517f08c379a00000000000000000000000000000000000000000000000000000000081526004018080602001828103825260128152602001807f416c69656e206973206e6f7420796f757273000000000000000000000000000081525060200191505060405180910390fd5b600060646005840281612d7f57fe5b0490508060135401831015612dfc576040517f08c379a000000000000000000000000000000000000000000000000000000000815260040180806020018281038252601e8152602001807f596f7572207072696365206d757374203e206d696e50726963652b746178000081525060200191505060405180910390fd5b60405180604001604052803373ffffffffffffffffffffffffffffffffffffffff168152602001848152506011600086815260200190815260200160002060008201518160000160006101000a81548173ffffffffffffffffffffffffffffffffffffffff021916908373ffffffffffffffffffffffffffffffffffffffff16021790555060208201518160010155905050612ea460016012546147b090919063ffffffff16565b6012819055503373ffffffffffffffffffffffffffffffffffffffff16847f0ab00abdeba89e1e636933e3617442ecc621d8eb58094eefd5985b15ca7a638760405160405180910390a350505050565b60068181548110612f0157fe5b9060005260206000209060040201600091509050806000018054600181600116156101000203166002900480601f016020809104026020016040519081016040528092919081815260200182805460018160011615610100020316600290048015612fad5780601f10612f8257610100808354040283529160200191612fad565b820191906000526020600020905b815481529060010190602001808311612f9057829003601f168201915b5050505050908060010154908060020154908060030160009054906101000a900461ffff16908060030160029054906101000a900461ffff16908060030160049054906101000a900463ffffffff16908060030160089054906101000a900463ffffffff169080600301600c9054906101000a900463ffffffff16905088565b600e5481565b6000809054906101000a900473ffffffffffffffffffffffffffffffffffffffff1673ffffffffffffffffffffffffffffffffffffffff163373ffffffffffffffffffffffffffffffffffffffff16146130f5576040517f08c379a00000000000000000000000000000000000000000000000000000000081526004018080602001828103825260138152602001807f4d75737420636f6e7472616374206f776e65720000000000000000000000000081525060200191505060405180910390fd5b80600e8190555050565b6000826007600082815260200190815260200160002060009054906101000a900473ffffffffffffffffffffffffffffffffffffffff1673ffffffffffffffffffffffffffffffffffffffff163373ffffffffffffffffffffffffffffffffffffffff16146131d6576040517f08c379a00000000000000000000000000000000000000000000000000000000081526004018080602001828103825260128152602001807f416c69656e206973206e6f7420796f757273000000000000000000000000000081525060200191505060405180910390fd5b6007600084815260200190815260200160002060009054906101000a900473ffffffffffffffffffffffffffffffffffffffff1673ffffffffffffffffffffffffffffffffffffffff163373ffffffffffffffffffffffffffffffffffffffff1614156132ab576040517f08c379a000000000000000000000000000000000000000000000000000000000815260040180806020018281038252601a8152602001807f5468652074617267657420616c69656e20697320796f7572732100000000000081525060200191505060405180910390fd5b6000600685815481106132ba57fe5b906000526020600020906004020190506132d3816147cc565b613345576040517f08c379a00000000000000000000000000000000000000000000000000000000081526004018080602001828103825260188152602001807f596f757220616c69656e206973206e6f7420726561647921000000000000000081525060200191505060405180910390fd5b600a8160030160029054906101000a900461ffff1661ffff16106133d1576040517f08c379a00000000000000000000000000000000000000000000000000000000081526004018080602001828103825260188152602001807f596f757220616c69656e2069732065786861757374656421000000000000000081525060200191505060405180910390fd5b6000600685815481106133e057fe5b9060005260206000209060040201905060006134308360030160049054906101000a900463ffffffff1663ffffffff168360030160049054906101000a900463ffffffff1663ffffffff166147f3565b9050600061343e6064614864565b905081811161355b5783600301600081819054906101000a900461ffff168092919060010191906101000a81548161ffff021916908361ffff1602179055505082600301600281819054906101000a900461ffff168092919060010191906101000a81548161ffff021916908361ffff1602179055505060006134f58560030160049054906101000a900463ffffffff1663ffffffff168560030160049054906101000a900463ffffffff1663ffffffff166148f3565b9050808560020160008282540192505081905550600060078660030160009054906101000a900461ffff1661ffff168161352b57fe5b0661ffff16141561354557613544898560010154614941565b5b61354e85614b36565b88965050505050506135da565b83600301600281819054906101000a900461ffff168092919060010191906101000a81548161ffff021916908361ffff1602179055505082600301600081819054906101000a900461ffff168092919060010191906101000a81548161ffff021916908361ffff160217905550506135d284614b36565b869550505050505b5092915050565b60135481565b806007600082815260200190815260200160002060009054906101000a900473ffffffffffffffffffffffffffffffffffffffff1673ffffffffffffffffffffffffffffffffffffffff163373ffffffffffffffffffffffffffffffffffffffff16146136bc576040517f08c379a00000000000000000000000000000000000000000000000000000000081526004018080602001828103825260128152602001807f416c69656e206973206e6f7420796f757273000000000000000000000000000081525060200191505060405180910390fd5b600f54341015613717576040517f08c379a0000000000000000000000000000000000000000000000000000000008152600401808060200182810382526022815260200180614dcb6022913960400191505060405180910390fd5b6000600f54348161372457fe5b0490506000600f548202905060008134039050826006868154811061374557fe5b90600052602060002090600402016002016000828254019250508190555060008111156137b4573373ffffffffffffffffffffffffffffffffffffffff166108fc829081150290604051600060405180830381858888f193505050501580156137b2573d6000803e3d6000fd5b505b5050505050565b600a6020528060005260406000206000915090508054600181600116156101000203166002900480601f0160208091040260200160405190810160405280929190818152602001828054600181600116156101000203166002900480156138635780601f1061383857610100808354040283529160200191613863565b820191906000526020600020905b81548152906001019060200180831161384657829003601f168201915b505050505081565b6000809054906101000a900473ffffffffffffffffffffffffffffffffffffffff1673ffffffffffffffffffffffffffffffffffffffff163373ffffffffffffffffffffffffffffffffffffffff161461392d576040517f08c379a00000000000000000000000000000000000000000000000000000000081526004018080602001828103825260138152602001807f4d75737420636f6e7472616374206f776e65720000000000000000000000000081525060200191505060405180910390fd5b80600f8190555050565b6000809054906101000a900473ffffffffffffffffffffffffffffffffffffffff1673ffffffffffffffffffffffffffffffffffffffff163373ffffffffffffffffffffffffffffffffffffffff16146139f9576040517f08c379a00000000000000000000000000000000000000000000000000000000081526004018080602001828103825260138152602001807f4d75737420636f6e7472616374206f776e65720000000000000000000000000081525060200191505060405180910390fd5b600073ffffffffffffffffffffffffffffffffffffffff168173ffffffffffffffffffffffffffffffffffffffff161415613a9c576040517f08c379a00000000000000000000000000000000000000000000000000000000081526004018080602001828103825260138152602001807f4d75737420636f6e7472616374206f776e65720000000000000000000000000081525060200191505060405180910390fd5b8073ffffffffffffffffffffffffffffffffffffffff166000809054906101000a900473ffffffffffffffffffffffffffffffffffffffff1673ffffffffffffffffffffffffffffffffffffffff167f8be0079c531659141344cd1fd0a4f28419497f9722a3daafe3b4186f6b6457e060405160405180910390a3806000806101000a81548173ffffffffffffffffffffffffffffffffffffffff021916908373ffffffffffffffffffffffffffffffffffffffff16021790555050565b806007600082815260200190815260200160002060009054906101000a900473ffffffffffffffffffffffffffffffffffffffff1673ffffffffffffffffffffffffffffffffffffffff163373ffffffffffffffffffffffffffffffffffffffff1614613c2f576040517f08c379a00000000000000000000000000000000000000000000000000000000081526004018080602001828103825260128152602001807f416c69656e206973206e6f7420796f757273000000000000000000000000000081525060200191505060405180910390fd5b600060068381548110613c3e57fe5b90600052602060002090600402019050613c5781614b72565b613c6057600080fd5b600a8160030160029054906101000a900461ffff1661ffff1610613cec576040517f08c379a00000000000000000000000000000000000000000000000000000000081526004018080602001828103825260188152602001807f596f757220616c69656e2069732065786861757374656421000000000000000081525060200191505060405180910390fd5b613d13600160096000868152602001908152602001600020546147b090919063ffffffff16565b600960008581526020019081526020016000208190555060006007600160096000878152602001908152602001600020540381613d4c57fe5b0690506001810163ffffffff168260020160008282540192505081905550613d91600160096000878152602001908152602001600020546147b090919063ffffffff16565b6009600086815260200190815260200160002081905550613db182614b99565b6000600a600960008781526020019081526020016000205481613dd057fe5b061415613e365760006008600a846001015481613de957fe5b06846001015403019050613e346040518060400160405280600b81526020017f616c69656e277320736f6e00000000000000000000000000000000000000000081525082600061407b565b505b50505050565b600f5481565b600060025482426040516020018083805190602001908083835b60208310613e7f5780518252602082019150602081019050602083039250613e5c565b6001836020036101000a038019825116818451168082178552505050505050905001828152602001925050506040516020818303038152906040528051906020012060001c81613ecb57fe5b069050919050565b600080600b836040518082805190602001908083835b60208310613f0c5780518252602082019150602081019050602083039250613ee9565b6001836020036101000a038019825116818451168082178552505050505050905001915050908152602001604051809103902060009054906101000a900473ffffffffffffffffffffffffffffffffffffffff169050600073ffffffffffffffffffffffffffffffffffffffff168173ffffffffffffffffffffffffffffffffffffffff1614158015613fcb57503373ffffffffffffffffffffffffffffffffffffffff168173ffffffffffffffffffffffffffffffffffffffff1614155b1561407057614023600a600c60008473ffffffffffffffffffffffffffffffffffffffff1673ffffffffffffffffffffffffffffffffffffffff168152602001908152602001600020546147b090919063ffffffff16565b600c60008373ffffffffffffffffffffffffffffffffffffffff1673ffffffffffffffffffffffffffffffffffffffff168152602001908152602001600020819055506001915050614076565b60009150505b919050565b60008161408957600061408c565b600a5b60ff169050600060016006604051806101000160405280888152602001878152602001858152602001600061ffff168152602001600061ffff168152602001600163ffffffff168152602001600063ffffffff168152602001600063ffffffff16815250908060018154018082558091505090600182039060005260206000209060040201600090919290919091506000820151816000019080519060200190614137929190614d25565b50602082015181600101556040820151816002015560608201518160030160006101000a81548161ffff021916908361ffff16021790555060808201518160030160026101000a81548161ffff021916908361ffff16021790555060a08201518160030160046101000a81548163ffffffff021916908363ffffffff16021790555060c08201518160030160086101000a81548163ffffffff021916908363ffffffff16021790555060e082015181600301600c6101000a81548163ffffffff021916908363ffffffff1602179055505050039050336007600083815260200190815260200160002060006101000a81548173ffffffffffffffffffffffffffffffffffffffff021916908373ffffffffffffffffffffffffffffffffffffffff1602179055506142b16001600860003373ffffffffffffffffffffffffffffffffffffffff1673ffffffffffffffffffffffffffffffffffffffff168152602001908152602001600020546147b090919063ffffffff16565b600860003373ffffffffffffffffffffffffffffffffffffffff1673ffffffffffffffffffffffffffffffffffffffff1681526020019081526020016000208190555061430a60016005546147b090919063ffffffff16565b6005819055507f579f53503490b77c105a1f950f9803d651db01ea7b9c5603c76442f09466d7728186866040518084815260200180602001838152602001828103825284818151815260200191508051906020019080838360005b83811015614380578082015181840152602081019050614365565b50505050905090810190601f1680156143ad5780820380516001836020036101000a031916815260200191505b5094505050505060405180910390a15050505050565b606080604080519080825280601f01601f1916602001820160405280156143f95781602001600182028038833980820191505090505b50905060008090505b60208110156144eb57600084826020811061441957fe5b1a60f81b9050600060108260f81c60ff168161443157fe5b0460f81b905060008160f81c6010028360f81c0360f81b905061445382614bd5565b85856002028151811061446257fe5b60200101907effffffffffffffffffffffffffffffffffffffffffffffffffffffffffffff1916908160001a90535061449a81614bd5565b8560018660020201815181106144ac57fe5b60200101907effffffffffffffffffffffffffffffffffffffffffffffffffffffffffffff1916908160001a9053505050508080600101915050614402565b5080915050919050565b60608084905060608484036040519080825280601f01601f1916602001820160405280156145325781602001600182028038833980820191505090505b50905060008590505b848110156145a45782818151811061454f57fe5b602001015160f81c60f81b828783038151811061456857fe5b60200101907effffffffffffffffffffffffffffffffffffffffffffffffffffffffffffff1916908160001a905350808060010191505061453b565b5080925050509392505050565b6146046001600860008573ffffffffffffffffffffffffffffffffffffffff1673ffffffffffffffffffffffffffffffffffffffff168152602001908152602001600020546147b090919063ffffffff16565b600860008473ffffffffffffffffffffffffffffffffffffffff1673ffffffffffffffffffffffffffffffffffffffff1681526020019081526020016000208190555061469a6001600860008673ffffffffffffffffffffffffffffffffffffffff1673ffffffffffffffffffffffffffffffffffffffff1681526020019081526020016000205461479990919063ffffffff16565b600860008573ffffffffffffffffffffffffffffffffffffffff1673ffffffffffffffffffffffffffffffffffffffff16815260200190815260200160002081905550816007600083815260200190815260200160002060006101000a81548173ffffffffffffffffffffffffffffffffffffffff021916908373ffffffffffffffffffffffffffffffffffffffff1602179055508173ffffffffffffffffffffffffffffffffffffffff168373ffffffffffffffffffffffffffffffffffffffff167fddf252ad1be2c89b69c2b068fc378daa952ba7f163c4a11628f55a4df523b3ef836040518082815260200191505060405180910390a3505050565b6000828211156147a557fe5b818303905092915050565b6000808284019050838110156147c257fe5b8091505092915050565b60004282600301600c9054906101000a900463ffffffff1663ffffffff1611159050919050565b60008082840390506000600161480883614c09565b0290506000808313156148205781603201905061484a565b6000831215614844578160321161483857600161483d565b816032035b9050614849565b603290505b5b605081111561485857605090505b80935050505092915050565b6000601460008154809291906001019190505550814233601454604051602001808481526020018373ffffffffffffffffffffffffffffffffffffffff1673ffffffffffffffffffffffffffffffffffffffff1660601b815260140182815260200193505050506040516020818303038152906040528051906020012060001c816148eb57fe5b069050919050565b600080600a905060006064600286028161490957fe5b046001018202905060008486039050600080821361492d5760038260000302614930565b60005b905080830194505050505092915050565b816007600082815260200190815260200160002060009054906101000a900473ffffffffffffffffffffffffffffffffffffffff1673ffffffffffffffffffffffffffffffffffffffff163373ffffffffffffffffffffffffffffffffffffffff1614614a16576040517f08c379a00000000000000000000000000000000000000000000000000000000081526004018080602001828103825260128152602001807f416c69656e206973206e6f7420796f757273000000000000000000000000000081525060200191505060405180910390fd5b600060068481548110614a2557fe5b90600052602060002090600402019050614a3e816147cc565b614ab0576040517f08c379a00000000000000000000000000000000000000000000000000000000081526004018080602001828103825260128152602001807f416c69656e206973206e6f74207265616479000000000000000000000000000081525060200191505060405180910390fd5b6002548381614abb57fe5b069250600060028483600101540181614ad057fe5b0490506009600a8281614adf57fe5b068203019050614b266040518060400160405280600681526020017f4e6f4e616d65000000000000000000000000000000000000000000000000000081525082600061407b565b614b2f82614b36565b5050505050565b62015180600354420181614b4657fe5b0660035442010381600301600c6101000a81548163ffffffff021916908363ffffffff16021790555050565b6000428260030160089054906101000a900463ffffffff1663ffffffff1611159050919050565b62015180600354420181614ba957fe5b066003544201038160030160086101000a81548163ffffffff021916908363ffffffff16021790555050565b6000600a8260f81c60ff161015614bf75760308260f81c0160f81b9050614c04565b60578260f81c0160f81b90505b919050565b600080821215614c1c5781600003614c1e565b815b9050919050565b828054600181600116156101000203166002900490600052602060002090601f016020900481019282601f10614c6657805160ff1916838001178555614c94565b82800160010185558215614c94579182015b82811115614c93578251825591602001919060010190614c78565b5b509050614ca19190614da5565b5090565b828054600181600116156101000203166002900490600052602060002090601f016020900481019282601f10614ce657803560ff1916838001178555614d14565b82800160010185558215614d14579182015b82811115614d13578235825591602001919060010190614cf8565b5b509050614d219190614da5565b5090565b828054600181600116156101000203166002900490600052602060002090601f016020900481019282601f10614d6657805160ff1916838001178555614d94565b82800160010185558215614d94579182015b82811115614d93578251825591602001919060010190614d78565b5b509050614da19190614da5565b5090565b614dc791905b80821115614dc3576000816000905550600101614dab565b5090565b9056fe4e6f7420656e6f756768204554482073656e7420666f7220616e79207368617264734e6f7420656e6f7567682073686172647320746f20616374697661746520616c69656ea265627a7a72315820039aeb55329937d93d50c6bbd477e8c5b9ff770a289fc37cef08696a7c3a1cc264736f6c634300050c0032",
  "linkReferences": {},
  "deployedLinkReferences": {}
}