{
  "_format": "hh-sol-artifact-1",
  "contractName": "AlienCore",
  "sourceName": "contracts/alienCore.sol",
  "abi": [
    {
      "anonymous": false,
      "inputs": [
        {
          "indexed": true,
          "internalType": "address",
          "name": "_owner",
          "type": "address"
        },
        {
          "indexed": true,
          "internalType": "address",
          "name": "_approved",
          "type": "address"
        },
        {
          "indexed": false,
          "internalType": "uint256",
          "name": "_tokenId",
          "type": "uint256"
        }
      ],
      "name": "Approval",
      "type": "event"
    },
    {
      "anonymous": false,
      "inputs": [
        {
          "indexed": true,
          "internalType": "uint256",
          "name": "alienId",
          "type": "uint256"
        },
        {
          "indexed": true,
          "internalType": "address",
          "name": "buyer",
          "type": "address"
        },
        {
          "indexed": true,
          "internalType": "address",
          "name": "seller",
          "type": "address"
        }
      ],
      "name": "BuyShopAlien",
      "type": "event"
    },
    {
      "anonymous": false,
      "inputs": [
        {
          "indexed": false,
          "internalType": "uint256",
          "name": "alienId",
          "type": "uint256"
        },
        {
          "indexed": false,
          "internalType": "string",
          "name": "name",
          "type": "string"
        },
        {
          "indexed": false,
          "internalType": "uint256",
          "name": "dna",
          "type": "uint256"
        }
      ],
      "name": "NewAlien",
      "type": "event"
    },
    {
      "anonymous": false,
      "inputs": [
        {
          "indexed": true,
          "internalType": "address",
          "name": "previousOwner",
          "type": "address"
        },
        {
          "indexed": true,
          "internalType": "address",
          "name": "newOwner",
          "type": "address"
        }
      ],
      "name": "OwnershipTransferred",
      "type": "event"
    },
    {
      "anonymous": false,
      "inputs": [
        {
          "indexed": true,
          "internalType": "uint256",
          "name": "alienId",
          "type": "uint256"
        },
        {
          "indexed": true,
          "internalType": "address",
          "name": "seller",
          "type": "address"
        }
      ],
      "name": "SaleAlien",
      "type": "event"
    },
    {
      "anonymous": false,
      "inputs": [
        {
          "indexed": true,
          "internalType": "address",
          "name": "_from",
          "type": "address"
        },
        {
          "indexed": true,
          "internalType": "address",
          "name": "_to",
          "type": "address"
        },
        {
          "indexed": false,
          "internalType": "uint256",
          "name": "_tokenId",
          "type": "uint256"
        }
      ],
      "name": "Transfer",
      "type": "event"
    },
    {
      "payable": true,
      "stateMutability": "payable",
      "type": "fallback"
    },
    {
      "constant": false,
      "inputs": [
        {
          "internalType": "uint256",
          "name": "_alienId",
          "type": "uint256"
        }
      ],
      "name": "activateAlien",
      "outputs": [],
      "payable": false,
      "stateMutability": "nonpayable",
      "type": "function"
    },
    {
      "constant": true,
      "inputs": [],
      "name": "alienCount",
      "outputs": [
        {
          "internalType": "uint256",
          "name": "",
          "type": "uint256"
        }
      ],
      "payable": false,
      "stateMutability": "view",
      "type": "function"
    },
    {
      "constant": true,
      "inputs": [
        {
          "internalType": "uint256",
          "name": "",
          "type": "uint256"
        }
      ],
      "name": "alienFeedTimes",
      "outputs": [
        {
          "internalType": "uint256",
          "name": "",
          "type": "uint256"
        }
      ],
      "payable": false,
      "stateMutability": "view",
      "type": "function"
    },
    {
      "constant": true,
      "inputs": [],
      "name": "alienPrice",
      "outputs": [
        {
          "internalType": "uint256",
          "name": "",
          "type": "uint256"
        }
      ],
      "payable": false,
      "stateMutability": "view",
      "type": "function"
    },
    {
      "constant": true,
      "inputs": [
        {
          "internalType": "uint256",
          "name": "",
          "type": "uint256"
        }
      ],
      "name": "alienShop",
      "outputs": [
        {
          "internalType": "address payable",
          "name": "seller",
          "type": "address"
        },
        {
          "internalType": "uint256",
          "name": "price",
          "type": "uint256"
        }
      ],
      "payable": false,
      "stateMutability": "view",
      "type": "function"
    },
    {
      "constant": true,
      "inputs": [
        {
          "internalType": "uint256",
          "name": "",
          "type": "uint256"
        }
      ],
      "name": "alienToOwner",
      "outputs": [
        {
          "internalType": "address",
          "name": "",
          "type": "address"
        }
      ],
      "payable": false,
      "stateMutability": "view",
      "type": "function"
    },
    {
      "constant": true,
      "inputs": [
        {
          "internalType": "uint256",
          "name": "",
          "type": "uint256"
        }
      ],
      "name": "aliens",
      "outputs": [
        {
          "internalType": "string",
          "name": "name",
          "type": "string"
        },
        {
          "internalType": "uint256",
          "name": "dna",
          "type": "uint256"
        },
        {
          "internalType": "uint256",
          "name": "shard",
          "type": "uint256"
        },
        {
          "internalType": "uint16",
          "name": "winCount",
          "type": "uint16"
        },
        {
          "internalType": "uint16",
          "name": "lossCount",
          "type": "uint16"
        },
        {
          "internalType": "uint32",
          "name": "level",
          "type": "uint32"
        },
        {
          "internalType": "uint32",
          "name": "readyFeedTime",
          "type": "uint32"
        },
        {
          "internalType": "uint32",
          "name": "readyAttackTime",
          "type": "uint32"
        }
      ],
      "payable": false,
      "stateMutability": "view",
      "type": "function"
    },
    {
      "constant": false,
      "inputs": [
        {
          "internalType": "address",
          "name": "_to",
          "type": "address"
        },
        {
          "internalType": "uint256",
          "name": "_tokenId",
          "type": "uint256"
        }
      ],
      "name": "approve",
      "outputs": [],
      "payable": false,
      "stateMutability": "nonpayable",
      "type": "function"
    },
    {
      "constant": false,
      "inputs": [
        {
          "internalType": "uint256",
          "name": "_alienId",
          "type": "uint256"
        },
        {
          "internalType": "uint256",
          "name": "_targetId",
          "type": "uint256"
        }
      ],
      "name": "attack",
      "outputs": [
        {
          "internalType": "uint256",
          "name": "",
          "type": "uint256"
        }
      ],
      "payable": false,
      "stateMutability": "nonpayable",
      "type": "function"
    },
    {
      "constant": true,
      "inputs": [
        {
          "internalType": "address",
          "name": "_owner",
          "type": "address"
        }
      ],
      "name": "balanceOf",
      "outputs": [
        {
          "internalType": "uint256",
          "name": "_balance",
          "type": "uint256"
        }
      ],
      "payable": false,
      "stateMutability": "view",
      "type": "function"
    },
    {
      "constant": false,
      "inputs": [
        {
          "internalType": "string",
          "name": "_name",
          "type": "string"
        }
      ],
      "name": "buyAlien",
      "outputs": [],
      "payable": true,
      "stateMutability": "payable",
      "type": "function"
    },
    {
      "constant": false,
      "inputs": [
        {
          "internalType": "uint256",
          "name": "_alienId",
          "type": "uint256"
        }
      ],
      "name": "buyShards",
      "outputs": [],
      "payable": true,
      "stateMutability": "payable",
      "type": "function"
    },
    {
      "constant": false,
      "inputs": [
        {
          "internalType": "uint256",
          "name": "_alienId",
          "type": "uint256"
        }
      ],
      "name": "buyShopAlien",
      "outputs": [],
      "payable": true,
      "stateMutability": "payable",
      "type": "function"
    },
    {
      "constant": false,
      "inputs": [
        {
          "internalType": "uint256",
          "name": "_alienId",
          "type": "uint256"
        },
        {
          "internalType": "string",
          "name": "_newName",
          "type": "string"
        }
      ],
      "name": "changeName",
      "outputs": [],
      "payable": false,
      "stateMutability": "nonpayable",
      "type": "function"
    },
    {
      "constant": true,
      "inputs": [],
      "name": "checkBalance",
      "outputs": [
        {
          "internalType": "uint256",
          "name": "",
          "type": "uint256"
        }
      ],
      "payable": false,
      "stateMutability": "view",
      "type": "function"
    },
    {
      "constant": true,
      "inputs": [
        {
          "internalType": "string",
          "name": "",
          "type": "string"
        }
      ],
      "name": "codeOwners",
      "outputs": [
        {
          "internalType": "address",
          "name": "",
          "type": "address"
        }
      ],
      "payable": false,
      "stateMutability": "view",
      "type": "function"
    },
    {
      "constant": true,
      "inputs": [],
      "name": "cooldownTime",
      "outputs": [
        {
          "internalType": "uint256",
          "name": "",
          "type": "uint256"
        }
      ],
      "payable": false,
      "stateMutability": "view",
      "type": "function"
    },
    {
      "constant": false,
      "inputs": [
        {
          "internalType": "string",
          "name": "_name",
          "type": "string"
        },
        {
          "internalType": "string",
          "name": "inviteCode",
          "type": "string"
        }
      ],
      "name": "createAlien",
      "outputs": [],
      "payable": false,
      "stateMutability": "nonpayable",
      "type": "function"
    },
    {
      "constant": false,
      "inputs": [
        {
          "internalType": "uint256",
          "name": "_alienId",
          "type": "uint256"
        }
      ],
      "name": "feed",
      "outputs": [],
      "payable": false,
      "stateMutability": "nonpayable",
      "type": "function"
    },
    {
      "constant": false,
      "inputs": [],
      "name": "generateInviteCode",
      "outputs": [],
      "payable": false,
      "stateMutability": "nonpayable",
      "type": "function"
    },
    {
      "constant": true,
      "inputs": [
        {
          "internalType": "address",
          "name": "_owner",
          "type": "address"
        }
      ],
      "name": "getAliensByOwner",
      "outputs": [
        {
          "internalType": "uint256[]",
          "name": "",
          "type": "uint256[]"
        }
      ],
      "payable": false,
      "stateMutability": "view",
      "type": "function"
    },
    {
      "constant": true,
      "inputs": [],
      "name": "getShopAliens",
      "outputs": [
        {
          "internalType": "uint256[]",
          "name": "",
          "type": "uint256[]"
        }
      ],
      "payable": false,
      "stateMutability": "view",
      "type": "function"
    },
    {
      "constant": true,
      "inputs": [],
      "name": "increment",
      "outputs": [
        {
          "internalType": "uint256",
          "name": "",
          "type": "uint256"
        }
      ],
      "payable": false,
      "stateMutability": "view",
      "type": "function"
    },
    {
      "constant": true,
      "inputs": [
        {
          "internalType": "address",
          "name": "",
          "type": "address"
        }
      ],
      "name": "inviteCodes",
      "outputs": [
        {
          "internalType": "string",
          "name": "",
          "type": "string"
        }
      ],
      "payable": false,
      "stateMutability": "view",
      "type": "function"
    },
    {
      "constant": false,
      "inputs": [
        {
          "internalType": "uint256",
          "name": "_alienId",
          "type": "uint256"
        }
      ],
      "name": "levelUp",
      "outputs": [],
      "payable": false,
      "stateMutability": "nonpayable",
      "type": "function"
    },
    {
      "constant": true,
      "inputs": [],
      "name": "minPrice",
      "outputs": [
        {
          "internalType": "uint256",
          "name": "",
          "type": "uint256"
        }
      ],
      "payable": false,
      "stateMutability": "view",
      "type": "function"
    },
    {
      "constant": true,
      "inputs": [],
      "name": "name",
      "outputs": [
        {
          "internalType": "string",
          "name": "",
          "type": "string"
        }
      ],
      "payable": false,
      "stateMutability": "view",
      "type": "function"
    },
    {
      "constant": true,
      "inputs": [],
      "name": "owner",
      "outputs": [
        {
          "internalType": "address payable",
          "name": "",
          "type": "address"
        }
      ],
      "payable": false,
      "stateMutability": "view",
      "type": "function"
    },
    {
      "constant": true,
      "inputs": [
        {
          "internalType": "uint256",
          "name": "_tokenId",
          "type": "uint256"
        }
      ],
      "name": "ownerOf",
      "outputs": [
        {
          "internalType": "address",
          "name": "_owner",
          "type": "address"
        }
      ],
      "payable": false,
      "stateMutability": "view",
      "type": "function"
    },
    {
      "constant": true,
      "inputs": [
        {
          "internalType": "address",
          "name": "",
          "type": "address"
        }
      ],
      "name": "points",
      "outputs": [
        {
          "internalType": "uint256",
          "name": "",
          "type": "uint256"
        }
      ],
      "payable": false,
      "stateMutability": "view",
      "type": "function"
    },
    {
      "constant": false,
      "inputs": [
        {
          "internalType": "uint256",
          "name": "_alienId",
          "type": "uint256"
        },
        {
          "internalType": "uint256",
          "name": "_price",
          "type": "uint256"
        }
      ],
      "name": "saleMyAlien",
      "outputs": [],
      "payable": false,
      "stateMutability": "nonpayable",
      "type": "function"
    },
    {
      "constant": false,
      "inputs": [
        {
          "internalType": "uint256",
          "name": "_price",
          "type": "uint256"
        }
      ],
      "name": "setAlienPrice",
      "outputs": [],
      "payable": false,
      "stateMutability": "nonpayable",
      "type": "function"
    },
    {
      "constant": false,
      "inputs": [
        {
          "internalType": "uint256",
          "name": "_newIncrement",
          "type": "uint256"
        }
      ],
      "name": "setIncrement",
      "outputs": [],
      "payable": false,
      "stateMutability": "nonpayable",
      "type": "function"
    },
    {
      "constant": false,
      "inputs": [
        {
          "internalType": "uint256",
          "name": "_value",
          "type": "uint256"
        }
      ],
      "name": "setMinPrice",
      "outputs": [],
      "payable": false,
      "stateMutability": "nonpayable",
      "type": "function"
    },
    {
      "constant": false,
      "inputs": [
        {
          "internalType": "uint256",
          "name": "_price",
          "type": "uint256"
        }
      ],
      "name": "setShardPrice",
      "outputs": [],
      "payable": false,
      "stateMutability": "nonpayable",
      "type": "function"
    },
    {
      "constant": true,
      "inputs": [],
      "name": "shardPrice",
      "outputs": [
        {
          "internalType": "uint256",
          "name": "",
          "type": "uint256"
        }
      ],
      "payable": false,
      "stateMutability": "view",
      "type": "function"
    },
    {
      "constant": true,
      "inputs": [],
      "name": "symbol",
      "outputs": [
        {
          "internalType": "string",
          "name": "",
          "type": "string"
        }
      ],
      "payable": false,
      "stateMutability": "view",
      "type": "function"
    },
    {
      "constant": false,
      "inputs": [
        {
          "internalType": "uint256",
          "name": "_tokenId",
          "type": "uint256"
        }
      ],
      "name": "takeOwnership",
      "outputs": [],
      "payable": false,
      "stateMutability": "nonpayable",
      "type": "function"
    },
    {
      "constant": false,
      "inputs": [
        {
          "internalType": "address",
          "name": "_to",
          "type": "address"
        },
        {
          "internalType": "uint256",
          "name": "_tokenId",
          "type": "uint256"
        }
      ],
      "name": "transfer",
      "outputs": [],
      "payable": false,
      "stateMutability": "nonpayable",
      "type": "function"
    },
    {
      "constant": false,
      "inputs": [
        {
          "internalType": "address payable",
          "name": "newOwner",
          "type": "address"
        }
      ],
      "name": "transferOwnership",
      "outputs": [],
      "payable": false,
      "stateMutability": "nonpayable",
      "type": "function"
    },
    {
      "constant": false,
      "inputs": [],
      "name": "withdraw",
      "outputs": [],
      "payable": false,
      "stateMutability": "nonpayable",
      "type": "function"
    }
  ],
  "bytecode": "0x60806040526010600155600154600a0a60025562015180600355662386f26fc1000060045560006005556005600d556002600e55655af3107a4000600f5566038d7ea4c680006013556000601455336000806101000a81548173ffffffffffffffffffffffffffffffffffffffff021916908373ffffffffffffffffffffffffffffffffffffffff1602179055506149f68061009c6000396000f3fe6080604052600436106102465760003560e01c806398ab95d611610139578063ca15fd60116100b6578063e748814b1161007a578063e748814b14611041578063ed5025701461106f578063ef4c8dff14611139578063f2fde38b14611174578063f59dfdfb146111c5578063ff7c9ac51461120057610246565b8063ca15fd6014610e3e578063d09de08a14610f57578063ddf3fc1a14610f82578063e1fa763814610fbd578063e45be8eb1461101657610246565b8063b97fbf5c116100fd578063b97fbf5c14610cc8578063c39cbef114610d03578063c6e20ea614610d93578063c71daccb14610dce578063c8c6b3f114610df957610246565b806398ab95d614610b70578063a5e8364714610bdc578063a9059cbb14610c07578063b2e6ceeb14610c62578063b319c6b714610c9d57610246565b806350089a2e116101c75780637314121b1161018b5780637314121b1461098a57806384ec4daf146109b85780638da5cb5b14610a075780638e224e2214610a5e57806395d89b4114610ae057610246565b806350089a2e146107dd57806354da4ac1146108585780635ea8cd121461086f5780636352211e146108aa57806370a082311461092557610246565b8063358b81661161020e578063358b8166146105735780633cc6ef53146105d85780633ccfd60b146106e057806346d485bb146106f757806348105b971461072257610246565b806306fdde0314610248578063095ea7b3146102d85780630ce90ec2146103335780631b7017e01461036e578063217f80b3146104cd575b005b34801561025457600080fd5b5061025d61122b565b6040518080602001828103825283818151815260200191508051906020019080838360005b8381101561029d578082015181840152602081019050610282565b50505050905090810190601f1680156102ca5780820380516001836020036101000a031916815260200191505b509250505060405180910390f35b3480156102e457600080fd5b50610331600480360360408110156102fb57600080fd5b81019080803573ffffffffffffffffffffffffffffffffffffffff16906020019092919080359060200190929190505050611264565b005b34801561033f57600080fd5b5061036c6004803603602081101561035657600080fd5b81019080803590602001909291905050506113f5565b005b34801561037a57600080fd5b506104cb6004803603604081101561039157600080fd5b81019080803590602001906401000000008111156103ae57600080fd5b8201836020820111156103c057600080fd5b803590602001918460018302840111640100000000831117156103e257600080fd5b91908080601f016020809104026020016040519081016040528093929190818152602001838380828437600081840152601f19601f8201169050808301925050505050505091929192908035906020019064010000000081111561044557600080fd5b82018360208201111561045757600080fd5b8035906020019184600183028401116401000000008311171561047957600080fd5b91908080601f016020809104026020016040519081016040528093929190818152602001838380828437600081840152601f19601f8201169050808301925050505050505091929192905050506115e8565b005b3480156104d957600080fd5b5061051c600480360360208110156104f057600080fd5b81019080803573ffffffffffffffffffffffffffffffffffffffff16906020019092919050505061166e565b6040518080602001828103825283818151815260200191508051906020019060200280838360005b8381101561055f578082015181840152602081019050610544565b505050509050019250505060405180910390f35b34801561057f57600080fd5b506105c26004803603602081101561059657600080fd5b81019080803573ffffffffffffffffffffffffffffffffffffffff16906020019092919050505061179b565b6040518082815260200191505060405180910390f35b3480156105e457600080fd5b5061069e600480360360208110156105fb57600080fd5b810190808035906020019064010000000081111561061857600080fd5b82018360208201111561062a57600080fd5b8035906020019184600183028401116401000000008311171561064c57600080fd5b91908080601f016020809104026020016040519081016040528093929190818152602001838380828437600081840152601f19601f8201169050808301925050505050505091929192905050506117b3565b604051808273ffffffffffffffffffffffffffffffffffffffff1673ffffffffffffffffffffffffffffffffffffffff16815260200191505060405180910390f35b3480156106ec57600080fd5b506106f56117fc565b005b34801561070357600080fd5b5061070c61193f565b6040518082815260200191505060405180910390f35b6107db6004803603602081101561073857600080fd5b810190808035906020019064010000000081111561075557600080fd5b82018360208201111561076757600080fd5b8035906020019184600183028401116401000000008311171561078957600080fd5b91908080601f016020809104026020016040519081016040528093929190818152602001838380828437600081840152601f19601f820116905080830192505050505050509192919290505050611945565b005b3480156107e957600080fd5b506108166004803603602081101561080057600080fd5b81019080803590602001909291905050506119cf565b604051808273ffffffffffffffffffffffffffffffffffffffff1673ffffffffffffffffffffffffffffffffffffffff16815260200191505060405180910390f35b34801561086457600080fd5b5061086d611a02565b005b34801561087b57600080fd5b506108a86004803603602081101561089257600080fd5b8101908080359060200190929190505050611c3e565b005b3480156108b657600080fd5b506108e3600480360360208110156108cd57600080fd5b8101908080359060200190929190505050611d0a565b604051808273ffffffffffffffffffffffffffffffffffffffff1673ffffffffffffffffffffffffffffffffffffffff16815260200191505060405180910390f35b34801561093157600080fd5b506109746004803603602081101561094857600080fd5b81019080803573ffffffffffffffffffffffffffffffffffffffff169060200190929190505050611d47565b6040518082815260200191505060405180910390f35b6109b6600480360360208110156109a057600080fd5b8101908080359060200190929190505050611d90565b005b3480156109c457600080fd5b506109f1600480360360208110156109db57600080fd5b8101908080359060200190929190505050611ffa565b6040518082815260200191505060405180910390f35b348015610a1357600080fd5b50610a1c612012565b604051808273ffffffffffffffffffffffffffffffffffffffff1673ffffffffffffffffffffffffffffffffffffffff16815260200191505060405180910390f35b348015610a6a57600080fd5b50610a9760048036036020811015610a8157600080fd5b8101908080359060200190929190505050612037565b604051808373ffffffffffffffffffffffffffffffffffffffff1673ffffffffffffffffffffffffffffffffffffffff1681526020018281526020019250505060405180910390f35b348015610aec57600080fd5b50610af561207b565b6040518080602001828103825283818151815260200191508051906020019080838360005b83811015610b35578082015181840152602081019050610b1a565b50505050905090810190601f168015610b625780820380516001836020036101000a031916815260200191505b509250505060405180910390f35b348015610b7c57600080fd5b50610b856120b4565b6040518080602001828103825283818151815260200191508051906020019060200280838360005b83811015610bc8578082015181840152602081019050610bad565b505050509050019250505060405180910390f35b348015610be857600080fd5b50610bf1612159565b6040518082815260200191505060405180910390f35b348015610c1357600080fd5b50610c6060048036036040811015610c2a57600080fd5b81019080803573ffffffffffffffffffffffffffffffffffffffff1690602001909291908035906020019092919050505061215f565b005b348015610c6e57600080fd5b50610c9b60048036036020811015610c8557600080fd5b8101908080359060200190929190505050612244565b005b348015610ca957600080fd5b50610cb26122cb565b6040518082815260200191505060405180910390f35b348015610cd457600080fd5b50610d0160048036036020811015610ceb57600080fd5b81019080803590602001909291905050506122d1565b005b348015610d0f57600080fd5b50610d9160048036036040811015610d2657600080fd5b810190808035906020019092919080359060200190640100000000811115610d4d57600080fd5b820183602082011115610d5f57600080fd5b80359060200191846001830284011164010000000083111715610d8157600080fd5b90919293919293905050506124e8565b005b348015610d9f57600080fd5b50610dcc60048036036020811015610db657600080fd5b81019080803590602001909291905050506126a0565b005b348015610dda57600080fd5b50610de361276c565b6040518082815260200191505060405180910390f35b348015610e0557600080fd5b50610e3c60048036036040811015610e1c57600080fd5b81019080803590602001909291908035906020019092919050505061284d565b005b348015610e4a57600080fd5b50610e7760048036036020811015610e6157600080fd5b8101908080359060200190929190505050612aa6565b60405180806020018981526020018881526020018761ffff1661ffff1681526020018661ffff1661ffff1681526020018563ffffffff1663ffffffff1681526020018463ffffffff1663ffffffff1681526020018363ffffffff1663ffffffff16815260200182810382528a818151815260200191508051906020019080838360005b83811015610f15578082015181840152602081019050610efa565b50505050905090810190601f168015610f425780820380516001836020036101000a031916815260200191505b50995050505050505050505060405180910390f35b348015610f6357600080fd5b50610f6c612bdf565b6040518082815260200191505060405180910390f35b348015610f8e57600080fd5b50610fbb60048036036020811015610fa557600080fd5b8101908080359060200190929190505050612be5565b005b348015610fc957600080fd5b5061100060048036036040811015610fe057600080fd5b810190808035906020019092919080359060200190929190505050612cb1565b6040518082815260200191505060405180910390f35b34801561102257600080fd5b5061102b613193565b6040518082815260200191505060405180910390f35b61106d6004803603602081101561105757600080fd5b8101908080359060200190929190505050613199565b005b34801561107b57600080fd5b506110be6004803603602081101561109257600080fd5b81019080803573ffffffffffffffffffffffffffffffffffffffff16906020019092919050505061336d565b6040518080602001828103825283818151815260200191508051906020019080838360005b838110156110fe5780820151818401526020810190506110e3565b50505050905090810190601f16801561112b5780820380516001836020036101000a031916815260200191505b509250505060405180910390f35b34801561114557600080fd5b506111726004803603602081101561115c57600080fd5b810190808035906020019092919050505061341d565b005b34801561118057600080fd5b506111c36004803603602081101561119757600080fd5b81019080803573ffffffffffffffffffffffffffffffffffffffff1690602001909291905050506134e9565b005b3480156111d157600080fd5b506111fe600480360360208110156111e857600080fd5b810190808035906020019092919050505061370c565b005b34801561120c57600080fd5b506112156139ee565b6040518082815260200191505060405180910390f35b6040518060400160405280600d81526020017f47414c415859204245494e47530000000000000000000000000000000000000081525081565b806007600082815260200190815260200160002060009054906101000a900473ffffffffffffffffffffffffffffffffffffffff1673ffffffffffffffffffffffffffffffffffffffff163373ffffffffffffffffffffffffffffffffffffffff1614611339576040517f08c379a00000000000000000000000000000000000000000000000000000000081526004018080602001828103825260128152602001807f416c69656e206973206e6f7420796f757273000000000000000000000000000081525060200191505060405180910390fd5b826010600084815260200190815260200160002060006101000a81548173ffffffffffffffffffffffffffffffffffffffff021916908373ffffffffffffffffffffffffffffffffffffffff1602179055508273ffffffffffffffffffffffffffffffffffffffff163373ffffffffffffffffffffffffffffffffffffffff167f8c5be1e5ebec7d5bd14f71427d1e84f3dd0314c0f7b2291e5b200ac8c7c3b925846040518082815260200191505060405180910390a3505050565b806007600082815260200190815260200160002060009054906101000a900473ffffffffffffffffffffffffffffffffffffffff1673ffffffffffffffffffffffffffffffffffffffff163373ffffffffffffffffffffffffffffffffffffffff16146114ca576040517f08c379a00000000000000000000000000000000000000000000000000000000081526004018080602001828103825260128152602001807f416c69656e206973206e6f7420796f757273000000000000000000000000000081525060200191505060405180910390fd5b6000600683815481106114d957fe5b9060005260206000209060040201905060008160030160049054906101000a900463ffffffff1663ffffffff1690506000600e546001830302600d540190508083600201541015611592576040517f08c379a000000000000000000000000000000000000000000000000000000000815260040180806020018281038252601d8152602001807f4e6f7420656e6f7567682073686172647320746f206c6576656c20757000000081525060200191505060405180910390fd5b80836002016000828254039250508190555082600301600481819054906101000a900463ffffffff168092919060010191906101000a81548163ffffffff021916908363ffffffff160217905550505050505050565b6000600860003373ffffffffffffffffffffffffffffffffffffffff1673ffffffffffffffffffffffffffffffffffffffff168152602001908152602001600020541461163457600080fd5b600061163f836139f4565b9050600a818161164b57fe5b0681039050600061165b83613a85565b9050611668848383613c2d565b50505050565b606080600860008473ffffffffffffffffffffffffffffffffffffffff1673ffffffffffffffffffffffffffffffffffffffff168152602001908152602001600020546040519080825280602002602001820160405280156116df5781602001602082028038833980820191505090505b509050600080905060008090505b600680549050811015611790578473ffffffffffffffffffffffffffffffffffffffff166007600083815260200190815260200160002060009054906101000a900473ffffffffffffffffffffffffffffffffffffffff1673ffffffffffffffffffffffffffffffffffffffff161415611783578083838151811061176e57fe5b60200260200101818152505081806001019250505b80806001019150506116ed565b508192505050919050565b600c6020528060005260406000206000915090505481565b600b818051602081018201805184825260208301602085012081835280955050505050506000915054906101000a900473ffffffffffffffffffffffffffffffffffffffff1681565b6000809054906101000a900473ffffffffffffffffffffffffffffffffffffffff1673ffffffffffffffffffffffffffffffffffffffff163373ffffffffffffffffffffffffffffffffffffffff16146118be576040517f08c379a00000000000000000000000000000000000000000000000000000000081526004018080602001828103825260138152602001807f4d75737420636f6e7472616374206f776e65720000000000000000000000000081525060200191505060405180910390fd5b6000809054906101000a900473ffffffffffffffffffffffffffffffffffffffff1673ffffffffffffffffffffffffffffffffffffffff166108fc3073ffffffffffffffffffffffffffffffffffffffff16319081150290604051600060405180830381858888f1935050505015801561193c573d6000803e3d6000fd5b50565b60045481565b6000600860003373ffffffffffffffffffffffffffffffffffffffff1673ffffffffffffffffffffffffffffffffffffffff168152602001908152602001600020541161199157600080fd5b6004543410156119a057600080fd5b60006119ab826139f4565b90506001600a82816119b957fe5b0682030190506119cb82826000613c2d565b5050565b60076020528060005260406000206000915054906101000a900473ffffffffffffffffffffffffffffffffffffffff1681565b6000600a60003373ffffffffffffffffffffffffffffffffffffffff1673ffffffffffffffffffffffffffffffffffffffff16815260200190815260200160002080546001816001161561010002031660029004905014611acb576040517f08c379a000000000000000000000000000000000000000000000000000000000815260040180806020018281038252601d8152602001807f496e7669746520636f646520616c72656164792067656e65726174656400000081525060200191505060405180910390fd5b600033604051602001808273ffffffffffffffffffffffffffffffffffffffff1673ffffffffffffffffffffffffffffffffffffffff1660601b81526014019150506040516020818303038152906040528051906020012090506060611b3c611b3383613f75565b600060086140a7565b905080600a60003373ffffffffffffffffffffffffffffffffffffffff1673ffffffffffffffffffffffffffffffffffffffff1681526020019081526020016000209080519060200190611b919291906147d7565b5033600b826040518082805190602001908083835b60208310611bc95780518252602082019150602081019050602083039250611ba6565b6001836020036101000a038019825116818451168082178552505050505050905001915050908152602001604051809103902060006101000a81548173ffffffffffffffffffffffffffffffffffffffff021916908373ffffffffffffffffffffffffffffffffffffffff1602179055505050565b6000809054906101000a900473ffffffffffffffffffffffffffffffffffffffff1673ffffffffffffffffffffffffffffffffffffffff163373ffffffffffffffffffffffffffffffffffffffff1614611d00576040517f08c379a00000000000000000000000000000000000000000000000000000000081526004018080602001828103825260138152602001807f4d75737420636f6e7472616374206f776e65720000000000000000000000000081525060200191505060405180910390fd5b8060138190555050565b60006007600083815260200190815260200160002060009054906101000a900473ffffffffffffffffffffffffffffffffffffffff169050919050565b6000600860008373ffffffffffffffffffffffffffffffffffffffff1673ffffffffffffffffffffffffffffffffffffffff168152602001908152602001600020549050919050565b6011600082815260200190815260200160002060010154341015611e1c576040517f08c379a000000000000000000000000000000000000000000000000000000000815260040180806020018281038252600f8152602001807f4e6f20656e6f756768206d6f6e6579000000000000000000000000000000000081525060200191505060405180910390fd5b60006064600560116000858152602001908152602001600020600101540281611e4157fe5b049050611e856011600084815260200190815260200160002060000160009054906101000a900473ffffffffffffffffffffffffffffffffffffffff163384614163565b6011600083815260200190815260200160002060000160009054906101000a900473ffffffffffffffffffffffffffffffffffffffff1673ffffffffffffffffffffffffffffffffffffffff166108fc8234039081150290604051600060405180830381858888f19350505050158015611f03573d6000803e3d6000fd5b5060116000838152602001908152602001600020600080820160006101000a81549073ffffffffffffffffffffffffffffffffffffffff021916905560018201600090555050611f5f600160125461434b90919063ffffffff16565b6012819055506011600083815260200190815260200160002060000160009054906101000a900473ffffffffffffffffffffffffffffffffffffffff1673ffffffffffffffffffffffffffffffffffffffff163373ffffffffffffffffffffffffffffffffffffffff16837f73c500d6398de063697316c500c0538ba2c0be76bea615a7b7f1e1c9f5b1158460405160405180910390a45050565b60096020528060005260406000206000915090505481565b6000809054906101000a900473ffffffffffffffffffffffffffffffffffffffff1681565b60116020528060005260406000206000915090508060000160009054906101000a900473ffffffffffffffffffffffffffffffffffffffff16908060010154905082565b6040518060400160405280600481526020017f474142450000000000000000000000000000000000000000000000000000000081525081565b6060806012546040519080825280602002602001820160405280156120e85781602001602082028038833980820191505090505b509050600080905060008090505b600680549050811015612150576000601160008381526020019081526020016000206001015414612143578083838151811061212e57fe5b60200260200101818152505081806001019250505b80806001019150506120f6565b50819250505090565b60055481565b806007600082815260200190815260200160002060009054906101000a900473ffffffffffffffffffffffffffffffffffffffff1673ffffffffffffffffffffffffffffffffffffffff163373ffffffffffffffffffffffffffffffffffffffff1614612234576040517f08c379a00000000000000000000000000000000000000000000000000000000081526004018080602001828103825260128152602001807f416c69656e206973206e6f7420796f757273000000000000000000000000000081525060200191505060405180910390fd5b61223f338484614163565b505050565b3373ffffffffffffffffffffffffffffffffffffffff166010600083815260200190815260200160002060009054906101000a900473ffffffffffffffffffffffffffffffffffffffff1673ffffffffffffffffffffffffffffffffffffffff16146122af57600080fd5b60006122ba82611d0a565b90506122c7813384614163565b5050565b60035481565b806007600082815260200190815260200160002060009054906101000a900473ffffffffffffffffffffffffffffffffffffffff1673ffffffffffffffffffffffffffffffffffffffff163373ffffffffffffffffffffffffffffffffffffffff16146123a6576040517f08c379a00000000000000000000000000000000000000000000000000000000081526004018080602001828103825260128152602001807f416c69656e206973206e6f7420796f757273000000000000000000000000000081525060200191505060405180910390fd5b6000600683815481106123b557fe5b90600052602060002090600402019050600a8160030160029054906101000a900461ffff1661ffff161015612452576040517f08c379a00000000000000000000000000000000000000000000000000000000081526004018080602001828103825260208152602001807f596f757220616c69656e206973206e6f7420657868617573746564207965742181525060200191505060405180910390fd5b600a816002015410156124b0576040517f08c379a000000000000000000000000000000000000000000000000000000000815260040180806020018281038252602381526020018061499f6023913960400191505060405180910390fd5b600a816002016000828254039250508190555060008160030160026101000a81548161ffff021916908361ffff160217905550505050565b60028381600682815481106124f957fe5b906000526020600020906004020160030160049054906101000a900463ffffffff1663ffffffff161015612595576040517f08c379a00000000000000000000000000000000000000000000000000000000081526004018080602001828103825260178152602001807f4c6576656c206973206e6f742073756666696369656e7400000000000000000081525060200191505060405180910390fd5b846007600082815260200190815260200160002060009054906101000a900473ffffffffffffffffffffffffffffffffffffffff1673ffffffffffffffffffffffffffffffffffffffff163373ffffffffffffffffffffffffffffffffffffffff161461266a576040517f08c379a00000000000000000000000000000000000000000000000000000000081526004018080602001828103825260128152602001807f416c69656e206973206e6f7420796f757273000000000000000000000000000081525060200191505060405180910390fd5b84846006888154811061267957fe5b90600052602060002090600402016000019190612697929190614857565b50505050505050565b6000809054906101000a900473ffffffffffffffffffffffffffffffffffffffff1673ffffffffffffffffffffffffffffffffffffffff163373ffffffffffffffffffffffffffffffffffffffff1614612762576040517f08c379a00000000000000000000000000000000000000000000000000000000081526004018080602001828103825260138152602001807f4d75737420636f6e7472616374206f776e65720000000000000000000000000081525060200191505060405180910390fd5b8060048190555050565b60008060009054906101000a900473ffffffffffffffffffffffffffffffffffffffff1673ffffffffffffffffffffffffffffffffffffffff163373ffffffffffffffffffffffffffffffffffffffff1614612830576040517f08c379a00000000000000000000000000000000000000000000000000000000081526004018080602001828103825260138152602001807f4d75737420636f6e7472616374206f776e65720000000000000000000000000081525060200191505060405180910390fd5b3073ffffffffffffffffffffffffffffffffffffffff1631905090565b816007600082815260200190815260200160002060009054906101000a900473ffffffffffffffffffffffffffffffffffffffff1673ffffffffffffffffffffffffffffffffffffffff163373ffffffffffffffffffffffffffffffffffffffff1614612922576040517f08c379a00000000000000000000000000000000000000000000000000000000081526004018080602001828103825260128152602001807f416c69656e206973206e6f7420796f757273000000000000000000000000000081525060200191505060405180910390fd5b60006064600584028161293157fe5b04905080601354018310156129ae576040517f08c379a000000000000000000000000000000000000000000000000000000000815260040180806020018281038252601e8152602001807f596f7572207072696365206d757374203e206d696e50726963652b746178000081525060200191505060405180910390fd5b60405180604001604052803373ffffffffffffffffffffffffffffffffffffffff168152602001848152506011600086815260200190815260200160002060008201518160000160006101000a81548173ffffffffffffffffffffffffffffffffffffffff021916908373ffffffffffffffffffffffffffffffffffffffff16021790555060208201518160010155905050612a56600160125461436290919063ffffffff16565b6012819055503373ffffffffffffffffffffffffffffffffffffffff16847f0ab00abdeba89e1e636933e3617442ecc621d8eb58094eefd5985b15ca7a638760405160405180910390a350505050565b60068181548110612ab357fe5b9060005260206000209060040201600091509050806000018054600181600116156101000203166002900480601f016020809104026020016040519081016040528092919081815260200182805460018160011615610100020316600290048015612b5f5780601f10612b3457610100808354040283529160200191612b5f565b820191906000526020600020905b815481529060010190602001808311612b4257829003601f168201915b5050505050908060010154908060020154908060030160009054906101000a900461ffff16908060030160029054906101000a900461ffff16908060030160049054906101000a900463ffffffff16908060030160089054906101000a900463ffffffff169080600301600c9054906101000a900463ffffffff16905088565b600e5481565b6000809054906101000a900473ffffffffffffffffffffffffffffffffffffffff1673ffffffffffffffffffffffffffffffffffffffff163373ffffffffffffffffffffffffffffffffffffffff1614612ca7576040517f08c379a00000000000000000000000000000000000000000000000000000000081526004018080602001828103825260138152602001807f4d75737420636f6e7472616374206f776e65720000000000000000000000000081525060200191505060405180910390fd5b80600e8190555050565b6000826007600082815260200190815260200160002060009054906101000a900473ffffffffffffffffffffffffffffffffffffffff1673ffffffffffffffffffffffffffffffffffffffff163373ffffffffffffffffffffffffffffffffffffffff1614612d88576040517f08c379a00000000000000000000000000000000000000000000000000000000081526004018080602001828103825260128152602001807f416c69656e206973206e6f7420796f757273000000000000000000000000000081525060200191505060405180910390fd5b6007600084815260200190815260200160002060009054906101000a900473ffffffffffffffffffffffffffffffffffffffff1673ffffffffffffffffffffffffffffffffffffffff163373ffffffffffffffffffffffffffffffffffffffff161415612e5d576040517f08c379a000000000000000000000000000000000000000000000000000000000815260040180806020018281038252601a8152602001807f5468652074617267657420616c69656e20697320796f7572732100000000000081525060200191505060405180910390fd5b600060068581548110612e6c57fe5b90600052602060002090600402019050612e858161437e565b612ef7576040517f08c379a00000000000000000000000000000000000000000000000000000000081526004018080602001828103825260188152602001807f596f757220616c69656e206973206e6f7420726561647921000000000000000081525060200191505060405180910390fd5b600a8160030160029054906101000a900461ffff1661ffff1610612f83576040517f08c379a00000000000000000000000000000000000000000000000000000000081526004018080602001828103825260188152602001807f596f757220616c69656e2069732065786861757374656421000000000000000081525060200191505060405180910390fd5b600060068581548110612f9257fe5b906000526020600020906004020190506000612fe28360030160049054906101000a900463ffffffff1663ffffffff168360030160049054906101000a900463ffffffff1663ffffffff166143a5565b90506000612ff06064614416565b905081811161310d5783600301600081819054906101000a900461ffff168092919060010191906101000a81548161ffff021916908361ffff1602179055505082600301600281819054906101000a900461ffff168092919060010191906101000a81548161ffff021916908361ffff1602179055505060006130a78560030160049054906101000a900463ffffffff1663ffffffff168560030160049054906101000a900463ffffffff1663ffffffff166144a5565b9050808560020160008282540192505081905550600060078660030160009054906101000a900461ffff1661ffff16816130dd57fe5b0661ffff1614156130f7576130f68985600101546144f3565b5b613100856146e8565b889650505050505061318c565b83600301600281819054906101000a900461ffff168092919060010191906101000a81548161ffff021916908361ffff1602179055505082600301600081819054906101000a900461ffff168092919060010191906101000a81548161ffff021916908361ffff16021790555050613184846146e8565b869550505050505b5092915050565b60135481565b806007600082815260200190815260200160002060009054906101000a900473ffffffffffffffffffffffffffffffffffffffff1673ffffffffffffffffffffffffffffffffffffffff163373ffffffffffffffffffffffffffffffffffffffff161461326e576040517f08c379a00000000000000000000000000000000000000000000000000000000081526004018080602001828103825260128152602001807f416c69656e206973206e6f7420796f757273000000000000000000000000000081525060200191505060405180910390fd5b600f543410156132c9576040517f08c379a000000000000000000000000000000000000000000000000000000000815260040180806020018281038252602281526020018061497d6022913960400191505060405180910390fd5b6000600f5434816132d657fe5b0490506000600f54820290506000813403905082600686815481106132f757fe5b9060005260206000209060040201600201600082825401925050819055506000811115613366573373ffffffffffffffffffffffffffffffffffffffff166108fc829081150290604051600060405180830381858888f19350505050158015613364573d6000803e3d6000fd5b505b5050505050565b600a6020528060005260406000206000915090508054600181600116156101000203166002900480601f0160208091040260200160405190810160405280929190818152602001828054600181600116156101000203166002900480156134155780601f106133ea57610100808354040283529160200191613415565b820191906000526020600020905b8154815290600101906020018083116133f857829003601f168201915b505050505081565b6000809054906101000a900473ffffffffffffffffffffffffffffffffffffffff1673ffffffffffffffffffffffffffffffffffffffff163373ffffffffffffffffffffffffffffffffffffffff16146134df576040517f08c379a00000000000000000000000000000000000000000000000000000000081526004018080602001828103825260138152602001807f4d75737420636f6e7472616374206f776e65720000000000000000000000000081525060200191505060405180910390fd5b80600f8190555050565b6000809054906101000a900473ffffffffffffffffffffffffffffffffffffffff1673ffffffffffffffffffffffffffffffffffffffff163373ffffffffffffffffffffffffffffffffffffffff16146135ab576040517f08c379a00000000000000000000000000000000000000000000000000000000081526004018080602001828103825260138152602001807f4d75737420636f6e7472616374206f776e65720000000000000000000000000081525060200191505060405180910390fd5b600073ffffffffffffffffffffffffffffffffffffffff168173ffffffffffffffffffffffffffffffffffffffff16141561364e576040517f08c379a00000000000000000000000000000000000000000000000000000000081526004018080602001828103825260138152602001807f4d75737420636f6e7472616374206f776e65720000000000000000000000000081525060200191505060405180910390fd5b8073ffffffffffffffffffffffffffffffffffffffff166000809054906101000a900473ffffffffffffffffffffffffffffffffffffffff1673ffffffffffffffffffffffffffffffffffffffff167f8be0079c531659141344cd1fd0a4f28419497f9722a3daafe3b4186f6b6457e060405160405180910390a3806000806101000a81548173ffffffffffffffffffffffffffffffffffffffff021916908373ffffffffffffffffffffffffffffffffffffffff16021790555050565b806007600082815260200190815260200160002060009054906101000a900473ffffffffffffffffffffffffffffffffffffffff1673ffffffffffffffffffffffffffffffffffffffff163373ffffffffffffffffffffffffffffffffffffffff16146137e1576040517f08c379a00000000000000000000000000000000000000000000000000000000081526004018080602001828103825260128152602001807f416c69656e206973206e6f7420796f757273000000000000000000000000000081525060200191505060405180910390fd5b6000600683815481106137f057fe5b9060005260206000209060040201905061380981614724565b61381257600080fd5b600a8160030160029054906101000a900461ffff1661ffff161061389e576040517f08c379a00000000000000000000000000000000000000000000000000000000081526004018080602001828103825260188152602001807f596f757220616c69656e2069732065786861757374656421000000000000000081525060200191505060405180910390fd5b6138c56001600960008681526020019081526020016000205461436290919063ffffffff16565b6009600085815260200190815260200160002081905550600060076001600960008781526020019081526020016000205403816138fe57fe5b0690506001810163ffffffff1682600201600082825401925050819055506139436001600960008781526020019081526020016000205461436290919063ffffffff16565b60096000868152602001908152602001600020819055506139638261474b565b6000600a60096000878152602001908152602001600020548161398257fe5b0614156139e85760006008600a84600101548161399b57fe5b068460010154030190506139e66040518060400160405280600b81526020017f616c69656e277320736f6e000000000000000000000000000000000000000000815250826000613c2d565b505b50505050565b600f5481565b600060025482426040516020018083805190602001908083835b60208310613a315780518252602082019150602081019050602083039250613a0e565b6001836020036101000a038019825116818451168082178552505050505050905001828152602001925050506040516020818303038152906040528051906020012060001c81613a7d57fe5b069050919050565b600080600b836040518082805190602001908083835b60208310613abe5780518252602082019150602081019050602083039250613a9b565b6001836020036101000a038019825116818451168082178552505050505050905001915050908152602001604051809103902060009054906101000a900473ffffffffffffffffffffffffffffffffffffffff169050600073ffffffffffffffffffffffffffffffffffffffff168173ffffffffffffffffffffffffffffffffffffffff1614158015613b7d57503373ffffffffffffffffffffffffffffffffffffffff168173ffffffffffffffffffffffffffffffffffffffff1614155b15613c2257613bd5600a600c60008473ffffffffffffffffffffffffffffffffffffffff1673ffffffffffffffffffffffffffffffffffffffff1681526020019081526020016000205461436290919063ffffffff16565b600c60008373ffffffffffffffffffffffffffffffffffffffff1673ffffffffffffffffffffffffffffffffffffffff168152602001908152602001600020819055506001915050613c28565b60009150505b919050565b600081613c3b576000613c3e565b600a5b60ff169050600060016006604051806101000160405280888152602001878152602001858152602001600061ffff168152602001600061ffff168152602001600163ffffffff168152602001600063ffffffff168152602001600063ffffffff16815250908060018154018082558091505090600182039060005260206000209060040201600090919290919091506000820151816000019080519060200190613ce99291906148d7565b50602082015181600101556040820151816002015560608201518160030160006101000a81548161ffff021916908361ffff16021790555060808201518160030160026101000a81548161ffff021916908361ffff16021790555060a08201518160030160046101000a81548163ffffffff021916908363ffffffff16021790555060c08201518160030160086101000a81548163ffffffff021916908363ffffffff16021790555060e082015181600301600c6101000a81548163ffffffff021916908363ffffffff1602179055505050039050336007600083815260200190815260200160002060006101000a81548173ffffffffffffffffffffffffffffffffffffffff021916908373ffffffffffffffffffffffffffffffffffffffff160217905550613e636001600860003373ffffffffffffffffffffffffffffffffffffffff1673ffffffffffffffffffffffffffffffffffffffff1681526020019081526020016000205461436290919063ffffffff16565b600860003373ffffffffffffffffffffffffffffffffffffffff1673ffffffffffffffffffffffffffffffffffffffff16815260200190815260200160002081905550613ebc600160055461436290919063ffffffff16565b6005819055507f579f53503490b77c105a1f950f9803d651db01ea7b9c5603c76442f09466d7728186866040518084815260200180602001838152602001828103825284818151815260200191508051906020019080838360005b83811015613f32578082015181840152602081019050613f17565b50505050905090810190601f168015613f5f5780820380516001836020036101000a031916815260200191505b5094505050505060405180910390a15050505050565b606080604080519080825280601f01601f191660200182016040528015613fab5781602001600182028038833980820191505090505b50905060008090505b602081101561409d576000848260208110613fcb57fe5b1a60f81b9050600060108260f81c60ff1681613fe357fe5b0460f81b905060008160f81c6010028360f81c0360f81b905061400582614787565b85856002028151811061401457fe5b60200101907effffffffffffffffffffffffffffffffffffffffffffffffffffffffffffff1916908160001a90535061404c81614787565b85600186600202018151811061405e57fe5b60200101907effffffffffffffffffffffffffffffffffffffffffffffffffffffffffffff1916908160001a9053505050508080600101915050613fb4565b5080915050919050565b60608084905060608484036040519080825280601f01601f1916602001820160405280156140e45781602001600182028038833980820191505090505b50905060008590505b848110156141565782818151811061410157fe5b602001015160f81c60f81b828783038151811061411a57fe5b60200101907effffffffffffffffffffffffffffffffffffffffffffffffffffffffffffff1916908160001a90535080806001019150506140ed565b5080925050509392505050565b6141b66001600860008573ffffffffffffffffffffffffffffffffffffffff1673ffffffffffffffffffffffffffffffffffffffff1681526020019081526020016000205461436290919063ffffffff16565b600860008473ffffffffffffffffffffffffffffffffffffffff1673ffffffffffffffffffffffffffffffffffffffff1681526020019081526020016000208190555061424c6001600860008673ffffffffffffffffffffffffffffffffffffffff1673ffffffffffffffffffffffffffffffffffffffff1681526020019081526020016000205461434b90919063ffffffff16565b600860008573ffffffffffffffffffffffffffffffffffffffff1673ffffffffffffffffffffffffffffffffffffffff16815260200190815260200160002081905550816007600083815260200190815260200160002060006101000a81548173ffffffffffffffffffffffffffffffffffffffff021916908373ffffffffffffffffffffffffffffffffffffffff1602179055508173ffffffffffffffffffffffffffffffffffffffff168373ffffffffffffffffffffffffffffffffffffffff167fddf252ad1be2c89b69c2b068fc378daa952ba7f163c4a11628f55a4df523b3ef836040518082815260200191505060405180910390a3505050565b60008282111561435757fe5b818303905092915050565b60008082840190508381101561437457fe5b8091505092915050565b60004282600301600c9054906101000a900463ffffffff1663ffffffff1611159050919050565b6000808284039050600060016143ba836147bb565b0290506000808313156143d2578160320190506143fc565b60008312156143f657816032116143ea5760016143ef565b816032035b90506143fb565b603290505b5b605081111561440a57605090505b80935050505092915050565b6000601460008154809291906001019190505550814233601454604051602001808481526020018373ffffffffffffffffffffffffffffffffffffffff1673ffffffffffffffffffffffffffffffffffffffff1660601b815260140182815260200193505050506040516020818303038152906040528051906020012060001c8161449d57fe5b069050919050565b600080600a90506000606460028602816144bb57fe5b04600101820290506000848603905060008082136144df57600382600003026144e2565b60005b905080830194505050505092915050565b816007600082815260200190815260200160002060009054906101000a900473ffffffffffffffffffffffffffffffffffffffff1673ffffffffffffffffffffffffffffffffffffffff163373ffffffffffffffffffffffffffffffffffffffff16146145c8576040517f08c379a00000000000000000000000000000000000000000000000000000000081526004018080602001828103825260128152602001807f416c69656e206973206e6f7420796f757273000000000000000000000000000081525060200191505060405180910390fd5b6000600684815481106145d757fe5b906000526020600020906004020190506145f08161437e565b614662576040517f08c379a00000000000000000000000000000000000000000000000000000000081526004018080602001828103825260128152602001807f416c69656e206973206e6f74207265616479000000000000000000000000000081525060200191505060405180910390fd5b600254838161466d57fe5b06925060006002848360010154018161468257fe5b0490506009600a828161469157fe5b0682030190506146d86040518060400160405280600681526020017f4e6f4e616d650000000000000000000000000000000000000000000000000000815250826000613c2d565b6146e1826146e8565b5050505050565b620151806003544201816146f857fe5b0660035442010381600301600c6101000a81548163ffffffff021916908363ffffffff16021790555050565b6000428260030160089054906101000a900463ffffffff1663ffffffff1611159050919050565b6201518060035442018161475b57fe5b066003544201038160030160086101000a81548163ffffffff021916908363ffffffff16021790555050565b6000600a8260f81c60ff1610156147a95760308260f81c0160f81b90506147b6565b60578260f81c0160f81b90505b919050565b6000808212156147ce57816000036147d0565b815b9050919050565b828054600181600116156101000203166002900490600052602060002090601f016020900481019282601f1061481857805160ff1916838001178555614846565b82800160010185558215614846579182015b8281111561484557825182559160200191906001019061482a565b5b5090506148539190614957565b5090565b828054600181600116156101000203166002900490600052602060002090601f016020900481019282601f1061489857803560ff19168380011785556148c6565b828001600101855582156148c6579182015b828111156148c55782358255916020019190600101906148aa565b5b5090506148d39190614957565b5090565b828054600181600116156101000203166002900490600052602060002090601f016020900481019282601f1061491857805160ff1916838001178555614946565b82800160010185558215614946579182015b8281111561494557825182559160200191906001019061492a565b5b5090506149539190614957565b5090565b61497991905b8082111561497557600081600090555060010161495d565b5090565b9056fe4e6f7420656e6f756768204554482073656e7420666f7220616e79207368617264734e6f7420656e6f7567682073686172647320746f20616374697661746520616c69656ea265627a7a723158203eaa2bf89da8865e0ebc7300799eeb6e91c0c81c16fe16056586c250889f005264736f6c634300050c0032",
  "linkReferences": {},
  "deployedLinkReferences": {}
}